{"abi":[{"type":"constructor","inputs":[{"name":"_owner","type":"address","internalType":"address"},{"name":"_ethUsdBase","type":"address","internalType":"address"}],"stateMutability":"nonpayable"},{"type":"function","name":"ethUsdBase","inputs":[],"outputs":[{"name":"","type":"address","internalType":"contract AggregatorV3Interface"}],"stateMutability":"view"},{"type":"function","name":"fixedKrwUsd","inputs":[],"outputs":[{"name":"","type":"uint256","internalType":"uint256"}],"stateMutability":"view"},{"type":"function","name":"getEthUsd","inputs":[],"outputs":[{"name":"px","type":"uint256","internalType":"uint256"},{"name":"updatedAt","type":"uint256","internalType":"uint256"}],"stateMutability":"view"},{"type":"function","name":"getKrwUsd","inputs":[],"outputs":[{"name":"px1e18","type":"uint256","internalType":"uint256"},{"name":"ts","type":"uint256","internalType":"uint256"}],"stateMutability":"view"},{"type":"function","name":"maxEthAge","inputs":[],"outputs":[{"name":"","type":"uint256","internalType":"uint256"}],"stateMutability":"view"},{"type":"function","name":"owner","inputs":[],"outputs":[{"name":"","type":"address","internalType":"address"}],"stateMutability":"view"},{"type":"function","name":"setEthUsdFeed","inputs":[{"name":"f","type":"address","internalType":"address"}],"outputs":[],"stateMutability":"nonpayable"},{"type":"function","name":"setFixedKrwUsd","inputs":[{"name":"px1e18","type":"uint256","internalType":"uint256"}],"outputs":[],"stateMutability":"nonpayable"},{"type":"function","name":"setLimits","inputs":[{"name":"eAge","type":"uint256","internalType":"uint256"},{"name":"","type":"uint256","internalType":"uint256"}],"outputs":[],"stateMutability":"nonpayable"},{"type":"event","name":"EthFeedSet","inputs":[{"name":"feed","type":"address","indexed":false,"internalType":"address"}],"anonymous":false},{"type":"event","name":"FixedKrwUsdSet","inputs":[{"name":"px1e18","type":"uint256","indexed":false,"internalType":"uint256"}],"anonymous":false},{"type":"event","name":"LimitsSet","inputs":[{"name":"maxEthAge","type":"uint256","indexed":false,"internalType":"uint256"},{"name":"maxKrwAge","type":"uint256","indexed":false,"internalType":"uint256"}],"anonymous":false}],"bytecode":{"object":"0x60806040526107086002556846791fc84e07d00000600355348015610022575f5ffd5b5060405161139e38038061139e833981810160405281019061004491906101cf565b5f73ffffffffffffffffffffffffffffffffffffffff168273ffffffffffffffffffffffffffffffffffffffff16141580156100ac57505f73ffffffffffffffffffffffffffffffffffffffff168173ffffffffffffffffffffffffffffffffffffffff1614155b6100eb576040517f08c379a00000000000000000000000000000000000000000000000000000000081526004016100e290610267565b60405180910390fd5b815f5f6101000a81548173ffffffffffffffffffffffffffffffffffffffff021916908373ffffffffffffffffffffffffffffffffffffffff1602179055508060015f6101000a81548173ffffffffffffffffffffffffffffffffffffffff021916908373ffffffffffffffffffffffffffffffffffffffff1602179055505050610285565b5f5ffd5b5f73ffffffffffffffffffffffffffffffffffffffff82169050919050565b5f61019e82610175565b9050919050565b6101ae81610194565b81146101b8575f5ffd5b50565b5f815190506101c9816101a5565b92915050565b5f5f604083850312156101e5576101e4610171565b5b5f6101f2858286016101bb565b9250506020610203858286016101bb565b9150509250929050565b5f82825260208201905092915050565b7f7a65726f000000000000000000000000000000000000000000000000000000005f82015250565b5f61025160048361020d565b915061025c8261021d565b602082019050919050565b5f6020820190508181035f83015261027e81610245565b9050919050565b61110c806102925f395ff3fe608060405234801561000f575f5ffd5b5060043610610091575f3560e01c8063a65d62ec11610064578063a65d62ec14610109578063bb27e0ce14610127578063c4590d3f14610146578063e7c668c814610162578063ebd68cea1461018157610091565b80633dca1d2d146100955780634d4cffda146100b157806355a75475146100cf5780638da5cb5b146100eb575b5f5ffd5b6100af60048036038101906100aa9190610809565b61019f565b005b6100b96102b0565b6040516100c69190610843565b60405180910390f35b6100e960048036038101906100e491906108b6565b6102b6565b005b6100f361042c565b60405161010091906108f0565b60405180910390f35b610111610450565b60405161011e9190610843565b60405180910390f35b61012f610456565b60405161013d929190610909565b60405180910390f35b610160600480360381019061015b9190610930565b610689565b005b61016a61079f565b604051610178929190610909565b60405180910390f35b6101896107ad565b60405161019691906109c9565b60405180910390f35b5f5f9054906101000a900473ffffffffffffffffffffffffffffffffffffffff1673ffffffffffffffffffffffffffffffffffffffff163373ffffffffffffffffffffffffffffffffffffffff161461022d576040517f08c379a000000000000000000000000000000000000000000000000000000000815260040161022490610a3c565b60405180910390fd5b5f811161026f576040517f08c379a000000000000000000000000000000000000000000000000000000000815260040161026690610aa4565b60405180910390fd5b806003819055507fd45334bb555f5b49406f64e39a227df4242cd44d1de687016ac2aba5b23d266e816040516102a59190610843565b60405180910390a150565b60035481565b5f5f9054906101000a900473ffffffffffffffffffffffffffffffffffffffff1673ffffffffffffffffffffffffffffffffffffffff163373ffffffffffffffffffffffffffffffffffffffff1614610344576040517f08c379a000000000000000000000000000000000000000000000000000000000815260040161033b90610a3c565b60405180910390fd5b5f73ffffffffffffffffffffffffffffffffffffffff168173ffffffffffffffffffffffffffffffffffffffff16036103b2576040517f08c379a00000000000000000000000000000000000000000000000000000000081526004016103a990610b0c565b60405180910390fd5b8060015f6101000a81548173ffffffffffffffffffffffffffffffffffffffff021916908373ffffffffffffffffffffffffffffffffffffffff1602179055507fee1d0e23ccf777e51883b586eb4c5453f924222d7caad7310fba59e1ec4b46f78160405161042191906108f0565b60405180910390a150565b5f5f9054906101000a900473ffffffffffffffffffffffffffffffffffffffff1681565b60025481565b5f5f5f5f60015f9054906101000a900473ffffffffffffffffffffffffffffffffffffffff1673ffffffffffffffffffffffffffffffffffffffff1663feaf968c6040518163ffffffff1660e01b815260040160a060405180830381865afa1580156104c4573d5f5f3e3d5ffd5b505050506040513d601f19601f820116820180604052508101906104e89190610bb0565b509350509250505f8213610531576040517f08c379a000000000000000000000000000000000000000000000000000000000815260040161052890610c71565b60405180910390fd5b60025481426105409190610cbc565b1115610581576040517f08c379a000000000000000000000000000000000000000000000000000000000815260040161057890610d39565b60405180910390fd5b5f60015f9054906101000a900473ffffffffffffffffffffffffffffffffffffffff1673ffffffffffffffffffffffffffffffffffffffff1663313ce5676040518163ffffffff1660e01b8152600401602060405180830381865afa1580156105ec573d5f5f3e3d5ffd5b505050506040513d601f19601f820116820180604052508101906106109190610d8d565b905060128160ff161115610659576040517f08c379a000000000000000000000000000000000000000000000000000000000815260040161065090610e02565b60405180910390fd5b8060126106669190610e20565b600a6106729190610f83565b8361067d9190610fcd565b94508193505050509091565b5f5f9054906101000a900473ffffffffffffffffffffffffffffffffffffffff1673ffffffffffffffffffffffffffffffffffffffff163373ffffffffffffffffffffffffffffffffffffffff1614610717576040517f08c379a000000000000000000000000000000000000000000000000000000000815260040161070e90610a3c565b60405180910390fd5b601e82101561075b576040517f08c379a000000000000000000000000000000000000000000000000000000000815260040161075290611058565b60405180910390fd5b816002819055507f2a00ae88790916c355d74c47251101f6daa7fe1b163c26b2add418af558d8080825f6040516107939291906110af565b60405180910390a15050565b5f5f60035491504290509091565b60015f9054906101000a900473ffffffffffffffffffffffffffffffffffffffff1681565b5f5ffd5b5f819050919050565b6107e8816107d6565b81146107f2575f5ffd5b50565b5f81359050610803816107df565b92915050565b5f6020828403121561081e5761081d6107d2565b5b5f61082b848285016107f5565b91505092915050565b61083d816107d6565b82525050565b5f6020820190506108565f830184610834565b92915050565b5f73ffffffffffffffffffffffffffffffffffffffff82169050919050565b5f6108858261085c565b9050919050565b6108958161087b565b811461089f575f5ffd5b50565b5f813590506108b08161088c565b92915050565b5f602082840312156108cb576108ca6107d2565b5b5f6108d8848285016108a2565b91505092915050565b6108ea8161087b565b82525050565b5f6020820190506109035f8301846108e1565b92915050565b5f60408201905061091c5f830185610834565b6109296020830184610834565b9392505050565b5f5f60408385031215610946576109456107d2565b5b5f610953858286016107f5565b9250506020610964858286016107f5565b9150509250929050565b5f819050919050565b5f61099161098c6109878461085c565b61096e565b61085c565b9050919050565b5f6109a282610977565b9050919050565b5f6109b382610998565b9050919050565b6109c3816109a9565b82525050565b5f6020820190506109dc5f8301846109ba565b92915050565b5f82825260208201905092915050565b7f6f776e65720000000000000000000000000000000000000000000000000000005f82015250565b5f610a266005836109e2565b9150610a31826109f2565b602082019050919050565b5f6020820190508181035f830152610a5381610a1a565b9050919050565b7f62616420666978656400000000000000000000000000000000000000000000005f82015250565b5f610a8e6009836109e2565b9150610a9982610a5a565b602082019050919050565b5f6020820190508181035f830152610abb81610a82565b9050919050565b7f7a65726f000000000000000000000000000000000000000000000000000000005f82015250565b5f610af66004836109e2565b9150610b0182610ac2565b602082019050919050565b5f6020820190508181035f830152610b2381610aea565b9050919050565b5f69ffffffffffffffffffff82169050919050565b610b4881610b2a565b8114610b52575f5ffd5b50565b5f81519050610b6381610b3f565b92915050565b5f819050919050565b610b7b81610b69565b8114610b85575f5ffd5b50565b5f81519050610b9681610b72565b92915050565b5f81519050610baa816107df565b92915050565b5f5f5f5f5f60a08688031215610bc957610bc86107d2565b5b5f610bd688828901610b55565b9550506020610be788828901610b88565b9450506040610bf888828901610b9c565b9350506060610c0988828901610b9c565b9250506080610c1a88828901610b55565b9150509295509295909350565b7f626164204554482f5553440000000000000000000000000000000000000000005f82015250565b5f610c5b600b836109e2565b9150610c6682610c27565b602082019050919050565b5f6020820190508181035f830152610c8881610c4f565b9050919050565b7f4e487b71000000000000000000000000000000000000000000000000000000005f52601160045260245ffd5b5f610cc6826107d6565b9150610cd1836107d6565b9250828203905081811115610ce957610ce8610c8f565b5b92915050565b7f7374616c65204554482f555344000000000000000000000000000000000000005f82015250565b5f610d23600d836109e2565b9150610d2e82610cef565b602082019050919050565b5f6020820190508181035f830152610d5081610d17565b9050919050565b5f60ff82169050919050565b610d6c81610d57565b8114610d76575f5ffd5b50565b5f81519050610d8781610d63565b92915050565b5f60208284031215610da257610da16107d2565b5b5f610daf84828501610d79565b91505092915050565b7f62616420646563696d616c7300000000000000000000000000000000000000005f82015250565b5f610dec600c836109e2565b9150610df782610db8565b602082019050919050565b5f6020820190508181035f830152610e1981610de0565b9050919050565b5f610e2a82610d57565b9150610e3583610d57565b9250828203905060ff811115610e4e57610e4d610c8f565b5b92915050565b5f8160011c9050919050565b5f5f8291508390505b6001851115610ea957808604811115610e8557610e84610c8f565b5b6001851615610e945780820291505b8081029050610ea285610e54565b9450610e69565b94509492505050565b5f82610ec15760019050610f7c565b81610ece575f9050610f7c565b8160018114610ee45760028114610eee57610f1d565b6001915050610f7c565b60ff841115610f0057610eff610c8f565b5b8360020a915084821115610f1757610f16610c8f565b5b50610f7c565b5060208310610133831016604e8410600b8410161715610f525782820a905083811115610f4d57610f4c610c8f565b5b610f7c565b610f5f8484846001610e60565b92509050818404811115610f7657610f75610c8f565b5b81810290505b9392505050565b5f610f8d826107d6565b9150610f9883610d57565b9250610fc57fffffffffffffffffffffffffffffffffffffffffffffffffffffffffffffffff8484610eb2565b905092915050565b5f610fd7826107d6565b9150610fe2836107d6565b9250828202610ff0816107d6565b9150828204841483151761100757611006610c8f565b5b5092915050565b7f62616400000000000000000000000000000000000000000000000000000000005f82015250565b5f6110426003836109e2565b915061104d8261100e565b602082019050919050565b5f6020820190508181035f83015261106f81611036565b9050919050565b5f819050919050565b5f61109961109461108f84611076565b61096e565b6107d6565b9050919050565b6110a98161107f565b82525050565b5f6040820190506110c25f830185610834565b6110cf60208301846110a0565b939250505056fea264697066735822122098c9eb4022e310168cc36435177ac94dada74e2b037df8278874029d235e4fe264736f6c634300081e0033","linkReferences":{}},"methodIdentifiers":{"ethUsdBase()":"ebd68cea","fixedKrwUsd()":"4d4cffda","getEthUsd()":"bb27e0ce","getKrwUsd()":"e7c668c8","maxEthAge()":"a65d62ec","owner()":"8da5cb5b","setEthUsdFeed(address)":"55a75475","setFixedKrwUsd(uint256)":"3dca1d2d","setLimits(uint256,uint256)":"c4590d3f"},"id":1}