{"abi":[{"type":"constructor","inputs":[{"name":"_router","type":"address","internalType":"address"},{"name":"_receiverOnBase","type":"address","internalType":"address"},{"name":"_baseSelector","type":"uint64","internalType":"uint64"},{"name":"_useFixed","type":"bool","internalType":"bool"},{"name":"_fixedPx1e18","type":"uint256","internalType":"uint256"},{"name":"_krwUsd","type":"address","internalType":"address"},{"name":"_owner","type":"address","internalType":"address"}],"stateMutability":"nonpayable"},{"type":"receive","stateMutability":"payable"},{"type":"function","name":"baseSelector","inputs":[],"outputs":[{"name":"","type":"uint64","internalType":"uint64"}],"stateMutability":"view"},{"type":"function","name":"ccipRouter","inputs":[],"outputs":[{"name":"","type":"address","internalType":"contract IRouterClient"}],"stateMutability":"view"},{"type":"function","name":"fixedPx1e18","inputs":[],"outputs":[{"name":"","type":"uint256","internalType":"uint256"}],"stateMutability":"view"},{"type":"function","name":"getRouter","inputs":[],"outputs":[{"name":"","type":"address","internalType":"address"}],"stateMutability":"view"},{"type":"function","name":"krwUsdL1","inputs":[],"outputs":[{"name":"","type":"address","internalType":"contract AggregatorV3Interface"}],"stateMutability":"view"},{"type":"function","name":"owner","inputs":[],"outputs":[{"name":"","type":"address","internalType":"address"}],"stateMutability":"view"},{"type":"function","name":"pushOnce","inputs":[],"outputs":[],"stateMutability":"payable"},{"type":"function","name":"quoteFee","inputs":[],"outputs":[{"name":"","type":"uint256","internalType":"uint256"}],"stateMutability":"view"},{"type":"function","name":"receiverOnBase","inputs":[],"outputs":[{"name":"","type":"address","internalType":"address"}],"stateMutability":"view"},{"type":"function","name":"setBaseSelector","inputs":[{"name":"s","type":"uint64","internalType":"uint64"}],"outputs":[],"stateMutability":"nonpayable"},{"type":"function","name":"setFeed","inputs":[{"name":"_krwUsd","type":"address","internalType":"address"}],"outputs":[],"stateMutability":"nonpayable"},{"type":"function","name":"setFixedMode","inputs":[{"name":"_useFixed","type":"bool","internalType":"bool"},{"name":"_fixedPx1e18","type":"uint256","internalType":"uint256"}],"outputs":[],"stateMutability":"nonpayable"},{"type":"function","name":"setOwner","inputs":[{"name":"_owner","type":"address","internalType":"address"}],"outputs":[],"stateMutability":"nonpayable"},{"type":"function","name":"setReceiverOnBase","inputs":[{"name":"r","type":"address","internalType":"address"}],"outputs":[],"stateMutability":"nonpayable"},{"type":"function","name":"useFixed","inputs":[],"outputs":[{"name":"","type":"bool","internalType":"bool"}],"stateMutability":"view"},{"type":"event","name":"BaseSelectorSet","inputs":[{"name":"selector","type":"uint64","indexed":false,"internalType":"uint64"}],"anonymous":false},{"type":"event","name":"FeedSet","inputs":[{"name":"feed","type":"address","indexed":false,"internalType":"address"}],"anonymous":false},{"type":"event","name":"FixedModeSet","inputs":[{"name":"useFixed","type":"bool","indexed":false,"internalType":"bool"},{"name":"fixedPx1e18","type":"uint256","indexed":false,"internalType":"uint256"}],"anonymous":false},{"type":"event","name":"OwnerSet","inputs":[{"name":"owner","type":"address","indexed":false,"internalType":"address"}],"anonymous":false},{"type":"event","name":"ReceiverSet","inputs":[{"name":"receiver","type":"address","indexed":false,"internalType":"address"}],"anonymous":false},{"type":"event","name":"Sent","inputs":[{"name":"msgId","type":"bytes32","indexed":false,"internalType":"bytes32"},{"name":"px1e18","type":"uint256","indexed":false,"internalType":"uint256"},{"name":"updatedAt","type":"uint256","indexed":false,"internalType":"uint256"}],"anonymous":false}],"bytecode":{"object":"0x60a060405234801561000f575f5ffd5b506040516125f83803806125f8833981810160405281019061003191906103ce565b5f73ffffffffffffffffffffffffffffffffffffffff168773ffffffffffffffffffffffffffffffffffffffff161415801561009957505f73ffffffffffffffffffffffffffffffffffffffff168673ffffffffffffffffffffffffffffffffffffffff1614155b80156100d157505f73ffffffffffffffffffffffffffffffffffffffff168173ffffffffffffffffffffffffffffffffffffffff1614155b610110576040517f08c379a0000000000000000000000000000000000000000000000000000000008152600401610107906104c5565b60405180910390fd5b8673ffffffffffffffffffffffffffffffffffffffff1660808173ffffffffffffffffffffffffffffffffffffffff1681525050855f5f6101000a81548173ffffffffffffffffffffffffffffffffffffffff021916908373ffffffffffffffffffffffffffffffffffffffff160217905550845f60146101000a81548167ffffffffffffffff021916908367ffffffffffffffff160217905550835f601c6101000a81548160ff021916908315150217905550826001819055508160025f6101000a81548173ffffffffffffffffffffffffffffffffffffffff021916908373ffffffffffffffffffffffffffffffffffffffff1602179055508060035f6101000a81548173ffffffffffffffffffffffffffffffffffffffff021916908373ffffffffffffffffffffffffffffffffffffffff160217905550836102bf575f73ffffffffffffffffffffffffffffffffffffffff168273ffffffffffffffffffffffffffffffffffffffff16036102be576040517f08c379a00000000000000000000000000000000000000000000000000000000081526004016102b59061052d565b60405180910390fd5b5b5050505050505061054b565b5f5ffd5b5f73ffffffffffffffffffffffffffffffffffffffff82169050919050565b5f6102f8826102cf565b9050919050565b610308816102ee565b8114610312575f5ffd5b50565b5f81519050610323816102ff565b92915050565b5f67ffffffffffffffff82169050919050565b61034581610329565b811461034f575f5ffd5b50565b5f815190506103608161033c565b92915050565b5f8115159050919050565b61037a81610366565b8114610384575f5ffd5b50565b5f8151905061039581610371565b92915050565b5f819050919050565b6103ad8161039b565b81146103b7575f5ffd5b50565b5f815190506103c8816103a4565b92915050565b5f5f5f5f5f5f5f60e0888a0312156103e9576103e86102cb565b5b5f6103f68a828b01610315565b97505060206104078a828b01610315565b96505060406104188a828b01610352565b95505060606104298a828b01610387565b945050608061043a8a828b016103ba565b93505060a061044b8a828b01610315565b92505060c061045c8a828b01610315565b91505092959891949750929550565b5f82825260208201905092915050565b7f7a65726f000000000000000000000000000000000000000000000000000000005f82015250565b5f6104af60048361046b565b91506104ba8261047b565b602082019050919050565b5f6020820190508181035f8301526104dc816104a3565b9050919050565b7f66656564207265717569726564000000000000000000000000000000000000005f82015250565b5f610517600d8361046b565b9150610522826104e3565b602082019050919050565b5f6020820190508181035f8301526105448161050b565b9050919050565b60805161207961057f5f395f81816103440152818161070001528181610a6701528181610d1e0152610e1301526120795ff3fe6080604052600436106100eb575f3560e01c806355b775ea11610089578063bebcabae11610058578063bebcabae146102bc578063c9575df7146102e4578063eda8ac92146102ee578063f632dc1414610318576100f2565b806355b775ea146102185780636bafe82f146102405780638da5cb5b14610268578063b0f479a114610292576100f2565b80632448eec0116100c55780632448eec0146101705780633520b1ff1461019a5780633ae9a260146101c457806342e08a24146101ee576100f2565b80630de22984146100f657806313af403514610120578063239880db14610148576100f2565b366100f257005b5f5ffd5b348015610101575f5ffd5b5061010a610342565b6040516101179190611370565b60405180910390f35b34801561012b575f5ffd5b50610146600480360381019061014191906113c8565b610366565b005b348015610153575f5ffd5b5061016e6004803603810190610169919061145b565b6104dd565b005b34801561017b575f5ffd5b506101846105c9565b60405161019191906114a8565b60405180910390f35b3480156101a5575f5ffd5b506101ae6105cf565b6040516101bb91906114e3565b60405180910390f35b3480156101cf575f5ffd5b506101d86105e8565b6040516101e591906114a8565b60405180910390f35b3480156101f9575f5ffd5b506102026107b3565b60405161020f919061150b565b60405180910390f35b348015610223575f5ffd5b5061023e600480360381019061023991906113c8565b6107d7565b005b34801561024b575f5ffd5b506102666004803603810190610261919061154e565b61094e565b005b348015610273575f5ffd5b5061027c610a3f565b604051610289919061150b565b60405180910390f35b34801561029d575f5ffd5b506102a6610a64565b6040516102b3919061150b565b60405180910390f35b3480156102c7575f5ffd5b506102e260048036038101906102dd91906113c8565b610a8b565b005b6102ec610c01565b005b3480156102f9575f5ffd5b50610302610fc9565b60405161030f9190611599565b60405180910390f35b348015610323575f5ffd5b5061032c610fee565b60405161033991906115c1565b60405180910390f35b7f000000000000000000000000000000000000000000000000000000000000000081565b60035f9054906101000a900473ffffffffffffffffffffffffffffffffffffffff1673ffffffffffffffffffffffffffffffffffffffff163373ffffffffffffffffffffffffffffffffffffffff16146103f5576040517f08c379a00000000000000000000000000000000000000000000000000000000081526004016103ec90611634565b60405180910390fd5b5f73ffffffffffffffffffffffffffffffffffffffff168173ffffffffffffffffffffffffffffffffffffffff1603610463576040517f08c379a000000000000000000000000000000000000000000000000000000000815260040161045a9061169c565b60405180910390fd5b8060035f6101000a81548173ffffffffffffffffffffffffffffffffffffffff021916908373ffffffffffffffffffffffffffffffffffffffff1602179055507f50146d0e3c60aa1d17a70635b05494f864e86144a2201275021014fbf08bafe2816040516104d2919061150b565b60405180910390a150565b60035f9054906101000a900473ffffffffffffffffffffffffffffffffffffffff1673ffffffffffffffffffffffffffffffffffffffff163373ffffffffffffffffffffffffffffffffffffffff161461056c576040517f08c379a000000000000000000000000000000000000000000000000000000000815260040161056390611634565b60405180910390fd5b815f601c6101000a81548160ff021916908315150217905550806001819055507f4dd5d0d99725282e36e866c3e13c4d29467cb359082746d87b6aaea5502cb7a982826040516105bd9291906116ba565b60405180910390a15050565b60015481565b5f60149054906101000a900467ffffffffffffffff1681565b5f5f6040518060a001604052805f5f9054906101000a900473ffffffffffffffffffffffffffffffffffffffff16604051602001610626919061150b565b60405160208183030381529060405281526020016846791fc84e07d00000426040516020016106569291906116e1565b60405160208183030381529060405281526020015f67ffffffffffffffff81111561068457610683611708565b5b6040519080825280602002602001820160405280156106bd57816020015b6106aa6112c8565b8152602001906001900390816106a25790505b5081526020015f73ffffffffffffffffffffffffffffffffffffffff1681526020016106f9604051806020016040528062030d40815250611000565b81525090507f000000000000000000000000000000000000000000000000000000000000000073ffffffffffffffffffffffffffffffffffffffff166320487ded5f60149054906101000a900467ffffffffffffffff16836040518363ffffffff1660e01b815260040161076e929190611920565b602060405180830381865afa158015610789573d5f5f3e3d5ffd5b505050506040513d601f19601f820116820180604052508101906107ad9190611962565b91505090565b5f5f9054906101000a900473ffffffffffffffffffffffffffffffffffffffff1681565b60035f9054906101000a900473ffffffffffffffffffffffffffffffffffffffff1673ffffffffffffffffffffffffffffffffffffffff163373ffffffffffffffffffffffffffffffffffffffff1614610866576040517f08c379a000000000000000000000000000000000000000000000000000000000815260040161085d90611634565b60405180910390fd5b5f73ffffffffffffffffffffffffffffffffffffffff168173ffffffffffffffffffffffffffffffffffffffff16036108d4576040517f08c379a00000000000000000000000000000000000000000000000000000000081526004016108cb9061169c565b60405180910390fd5b8060025f6101000a81548173ffffffffffffffffffffffffffffffffffffffff021916908373ffffffffffffffffffffffffffffffffffffffff1602179055507f60d393a936b721ab70baf57ec1b61b0854449374d0be0bf1b7eac882a3a1790781604051610943919061150b565b60405180910390a150565b60035f9054906101000a900473ffffffffffffffffffffffffffffffffffffffff1673ffffffffffffffffffffffffffffffffffffffff163373ffffffffffffffffffffffffffffffffffffffff16146109dd576040517f08c379a00000000000000000000000000000000000000000000000000000000081526004016109d490611634565b60405180910390fd5b805f60146101000a81548167ffffffffffffffff021916908367ffffffffffffffff1602179055507f9c60c33d5e40bedd6883d365b2dbd6950fefac9402e1e3bbf0dcfc1abd1f188f81604051610a3491906114e3565b60405180910390a150565b60035f9054906101000a900473ffffffffffffffffffffffffffffffffffffffff1681565b5f7f0000000000000000000000000000000000000000000000000000000000000000905090565b60035f9054906101000a900473ffffffffffffffffffffffffffffffffffffffff1673ffffffffffffffffffffffffffffffffffffffff163373ffffffffffffffffffffffffffffffffffffffff1614610b1a576040517f08c379a0000000000000000000000000000000000000000000000000000000008152600401610b1190611634565b60405180910390fd5b5f73ffffffffffffffffffffffffffffffffffffffff168173ffffffffffffffffffffffffffffffffffffffff1603610b88576040517f08c379a0000000000000000000000000000000000000000000000000000000008152600401610b7f9061169c565b60405180910390fd5b805f5f6101000a81548173ffffffffffffffffffffffffffffffffffffffff021916908373ffffffffffffffffffffffffffffffffffffffff1602179055507fb68fd1a788a85f8f18de7976d851969ff9ff2216de81169c17a6f4ac94c23def81604051610bf6919061150b565b60405180910390a150565b5f5f610c0b61107f565b915091505f6040518060a001604052805f5f9054906101000a900473ffffffffffffffffffffffffffffffffffffffff16604051602001610c4c919061150b565b60405160208183030381529060405281526020018484604051602001610c739291906116e1565b60405160208183030381529060405281526020015f67ffffffffffffffff811115610ca157610ca0611708565b5b604051908082528060200260200182016040528015610cda57816020015b610cc76112c8565b815260200190600190039081610cbf5790505b5081526020015f73ffffffffffffffffffffffffffffffffffffffff168152602001610d16604051806020016040528062030d40815250611000565b81525090505f7f000000000000000000000000000000000000000000000000000000000000000073ffffffffffffffffffffffffffffffffffffffff166320487ded5f60149054906101000a900467ffffffffffffffff16846040518363ffffffff1660e01b8152600401610d8c929190611920565b602060405180830381865afa158015610da7573d5f5f3e3d5ffd5b505050506040513d601f19601f82011682018060405250810190610dcb9190611962565b905080341015610e10576040517f08c379a0000000000000000000000000000000000000000000000000000000008152600401610e07906119d7565b60405180910390fd5b5f7f000000000000000000000000000000000000000000000000000000000000000073ffffffffffffffffffffffffffffffffffffffff166396f4e9f9835f60149054906101000a900467ffffffffffffffff16866040518463ffffffff1660e01b8152600401610e82929190611920565b60206040518083038185885af1158015610e9e573d5f5f3e3d5ffd5b50505050506040513d601f19601f82011682018060405250810190610ec39190611a28565b90507fbbbacf56e8f8c5b2c2abd8b0ced818111b517c80584f24cfe1fa6324a5eee8b1818686604051610ef893929190611a62565b60405180910390a181341115610fc2575f8234610f159190611ac4565b90505f3373ffffffffffffffffffffffffffffffffffffffff1682604051610f3c90611b24565b5f6040518083038185875af1925050503d805f8114610f76576040519150601f19603f3d011682016040523d82523d5f602084013e610f7b565b606091505b5050905080610fbf576040517f08c379a0000000000000000000000000000000000000000000000000000000008152600401610fb690611b82565b60405180910390fd5b50505b5050505050565b60025f9054906101000a900473ffffffffffffffffffffffffffffffffffffffff1681565b5f601c9054906101000a900460ff1681565b60606397a657c960e01b8260405160240161101b9190611bba565b604051602081830303815290604052907bffffffffffffffffffffffffffffffffffffffffffffffffffffffff19166020820180517bffffffffffffffffffffffffffffffffffffffffffffffffffffffff83818316178352505050509050919050565b5f5f5f601c9054906101000a900460ff16156110e6575f600154116110d9576040517f08c379a00000000000000000000000000000000000000000000000000000000081526004016110d090611c1d565b60405180910390fd5b60015442915091506112c4565b5f5f60025f9054906101000a900473ffffffffffffffffffffffffffffffffffffffff1673ffffffffffffffffffffffffffffffffffffffff1663feaf968c6040518163ffffffff1660e01b815260040160a060405180830381865afa158015611152573d5f5f3e3d5ffd5b505050506040513d601f19601f820116820180604052508101906111769190611cad565b509350509250505f82136111bf576040517f08c379a00000000000000000000000000000000000000000000000000000000081526004016111b690611d6e565b60405180910390fd5b5f60025f9054906101000a900473ffffffffffffffffffffffffffffffffffffffff1673ffffffffffffffffffffffffffffffffffffffff1663313ce5676040518163ffffffff1660e01b8152600401602060405180830381865afa15801561122a573d5f5f3e3d5ffd5b505050506040513d601f19601f8201168201806040525081019061124e9190611dc2565b905060128160ff161115611297576040517f08c379a000000000000000000000000000000000000000000000000000000000815260040161128e90611e37565b60405180910390fd5b8060126112a49190611e55565b600a6112b09190611fb8565b836112bb9190612002565b94508193505050505b9091565b60405180604001604052805f73ffffffffffffffffffffffffffffffffffffffff1681526020015f81525090565b5f73ffffffffffffffffffffffffffffffffffffffff82169050919050565b5f819050919050565b5f61133861133361132e846112f6565b611315565b6112f6565b9050919050565b5f6113498261131e565b9050919050565b5f61135a8261133f565b9050919050565b61136a81611350565b82525050565b5f6020820190506113835f830184611361565b92915050565b5f5ffd5b5f611397826112f6565b9050919050565b6113a78161138d565b81146113b1575f5ffd5b50565b5f813590506113c28161139e565b92915050565b5f602082840312156113dd576113dc611389565b5b5f6113ea848285016113b4565b91505092915050565b5f8115159050919050565b611407816113f3565b8114611411575f5ffd5b50565b5f81359050611422816113fe565b92915050565b5f819050919050565b61143a81611428565b8114611444575f5ffd5b50565b5f8135905061145581611431565b92915050565b5f5f6040838503121561147157611470611389565b5b5f61147e85828601611414565b925050602061148f85828601611447565b9150509250929050565b6114a281611428565b82525050565b5f6020820190506114bb5f830184611499565b92915050565b5f67ffffffffffffffff82169050919050565b6114dd816114c1565b82525050565b5f6020820190506114f65f8301846114d4565b92915050565b6115058161138d565b82525050565b5f60208201905061151e5f8301846114fc565b92915050565b61152d816114c1565b8114611537575f5ffd5b50565b5f8135905061154881611524565b92915050565b5f6020828403121561156357611562611389565b5b5f6115708482850161153a565b91505092915050565b5f6115838261133f565b9050919050565b61159381611579565b82525050565b5f6020820190506115ac5f83018461158a565b92915050565b6115bb816113f3565b82525050565b5f6020820190506115d45f8301846115b2565b92915050565b5f82825260208201905092915050565b7f6e6f74206f776e657200000000000000000000000000000000000000000000005f82015250565b5f61161e6009836115da565b9150611629826115ea565b602082019050919050565b5f6020820190508181035f83015261164b81611612565b9050919050565b7f7a65726f000000000000000000000000000000000000000000000000000000005f82015250565b5f6116866004836115da565b915061169182611652565b602082019050919050565b5f6020820190508181035f8301526116b38161167a565b9050919050565b5f6040820190506116cd5f8301856115b2565b6116da6020830184611499565b9392505050565b5f6040820190506116f45f830185611499565b6117016020830184611499565b9392505050565b7f4e487b71000000000000000000000000000000000000000000000000000000005f52604160045260245ffd5b5f81519050919050565b5f82825260208201905092915050565b8281835e5f83830152505050565b5f601f19601f8301169050919050565b5f61177782611735565b611781818561173f565b935061179181856020860161174f565b61179a8161175d565b840191505092915050565b5f81519050919050565b5f82825260208201905092915050565b5f819050602082019050919050565b6117d78161138d565b82525050565b6117e681611428565b82525050565b604082015f8201516118005f8501826117ce565b50602082015161181360208501826117dd565b50505050565b5f61182483836117ec565b60408301905092915050565b5f602082019050919050565b5f611846826117a5565b61185081856117af565b935061185b836117bf565b805f5b8381101561188b5781516118728882611819565b975061187d83611830565b92505060018101905061185e565b5085935050505092915050565b5f60a083015f8301518482035f8601526118b2828261176d565b915050602083015184820360208601526118cc828261176d565b915050604083015184820360408601526118e6828261183c565b91505060608301516118fb60608601826117ce565b5060808301518482036080860152611913828261176d565b9150508091505092915050565b5f6040820190506119335f8301856114d4565b81810360208301526119458184611898565b90509392505050565b5f8151905061195c81611431565b92915050565b5f6020828403121561197757611976611389565b5b5f6119848482850161194e565b91505092915050565b7f496e73756666696369656e7420666565000000000000000000000000000000005f82015250565b5f6119c16010836115da565b91506119cc8261198d565b602082019050919050565b5f6020820190508181035f8301526119ee816119b5565b9050919050565b5f819050919050565b611a07816119f5565b8114611a11575f5ffd5b50565b5f81519050611a22816119fe565b92915050565b5f60208284031215611a3d57611a3c611389565b5b5f611a4a84828501611a14565b91505092915050565b611a5c816119f5565b82525050565b5f606082019050611a755f830186611a53565b611a826020830185611499565b611a8f6040830184611499565b949350505050565b7f4e487b71000000000000000000000000000000000000000000000000000000005f52601160045260245ffd5b5f611ace82611428565b9150611ad983611428565b9250828203905081811115611af157611af0611a97565b5b92915050565b5f81905092915050565b50565b5f611b0f5f83611af7565b9150611b1a82611b01565b5f82019050919050565b5f611b2e82611b04565b9150819050919050565b7f726566756e64206661696c0000000000000000000000000000000000000000005f82015250565b5f611b6c600b836115da565b9150611b7782611b38565b602082019050919050565b5f6020820190508181035f830152611b9981611b60565b9050919050565b602082015f820151611bb45f8501826117dd565b50505050565b5f602082019050611bcd5f830184611ba0565b92915050565b7f66697865643d30000000000000000000000000000000000000000000000000005f82015250565b5f611c076007836115da565b9150611c1282611bd3565b602082019050919050565b5f6020820190508181035f830152611c3481611bfb565b9050919050565b5f69ffffffffffffffffffff82169050919050565b611c5981611c3b565b8114611c63575f5ffd5b50565b5f81519050611c7481611c50565b92915050565b5f819050919050565b611c8c81611c7a565b8114611c96575f5ffd5b50565b5f81519050611ca781611c83565b92915050565b5f5f5f5f5f60a08688031215611cc657611cc5611389565b5b5f611cd388828901611c66565b9550506020611ce488828901611c99565b9450506040611cf58882890161194e565b9350506060611d068882890161194e565b9250506080611d1788828901611c66565b9150509295509295909350565b7f62616420666565640000000000000000000000000000000000000000000000005f82015250565b5f611d586008836115da565b9150611d6382611d24565b602082019050919050565b5f6020820190508181035f830152611d8581611d4c565b9050919050565b5f60ff82169050919050565b611da181611d8c565b8114611dab575f5ffd5b50565b5f81519050611dbc81611d98565b92915050565b5f60208284031215611dd757611dd6611389565b5b5f611de484828501611dae565b91505092915050565b7f62616420646563696d616c7300000000000000000000000000000000000000005f82015250565b5f611e21600c836115da565b9150611e2c82611ded565b602082019050919050565b5f6020820190508181035f830152611e4e81611e15565b9050919050565b5f611e5f82611d8c565b9150611e6a83611d8c565b9250828203905060ff811115611e8357611e82611a97565b5b92915050565b5f8160011c9050919050565b5f5f8291508390505b6001851115611ede57808604811115611eba57611eb9611a97565b5b6001851615611ec95780820291505b8081029050611ed785611e89565b9450611e9e565b94509492505050565b5f82611ef65760019050611fb1565b81611f03575f9050611fb1565b8160018114611f195760028114611f2357611f52565b6001915050611fb1565b60ff841115611f3557611f34611a97565b5b8360020a915084821115611f4c57611f4b611a97565b5b50611fb1565b5060208310610133831016604e8410600b8410161715611f875782820a905083811115611f8257611f81611a97565b5b611fb1565b611f948484846001611e95565b92509050818404811115611fab57611faa611a97565b5b81810290505b9392505050565b5f611fc282611428565b9150611fcd83611d8c565b9250611ffa7fffffffffffffffffffffffffffffffffffffffffffffffffffffffffffffffff8484611ee7565b905092915050565b5f61200c82611428565b915061201783611428565b925082820261202581611428565b9150828204841483151761203c5761203b611a97565b5b509291505056fea26469706673582212207ff101671b71e2cc71b97ee352257156ffc09599d53df606f1a755f0c4396ad264736f6c634300081e0033","linkReferences":{}},"methodIdentifiers":{"baseSelector()":"3520b1ff","ccipRouter()":"0de22984","fixedPx1e18()":"2448eec0","getRouter()":"b0f479a1","krwUsdL1()":"eda8ac92","owner()":"8da5cb5b","pushOnce()":"c9575df7","quoteFee()":"3ae9a260","receiverOnBase()":"42e08a24","setBaseSelector(uint64)":"6bafe82f","setFeed(address)":"55b775ea","setFixedMode(bool,uint256)":"239880db","setOwner(address)":"13af4035","setReceiverOnBase(address)":"bebcabae","useFixed()":"f632dc14"},"id":60}