{"abi":[{"type":"constructor","inputs":[{"name":"_wkrw","type":"address","internalType":"address"},{"name":"_adapter","type":"address","internalType":"address"},{"name":"_feeRecipient","type":"address","internalType":"address"}],"stateMutability":"nonpayable"},{"type":"receive","stateMutability":"payable"},{"type":"function","name":"acceptOwnership","inputs":[],"outputs":[],"stateMutability":"nonpayable"},{"type":"function","name":"adapter","inputs":[],"outputs":[{"name":"","type":"address","internalType":"contract IOracleAdapter"}],"stateMutability":"view"},{"type":"function","name":"dailyMintCap","inputs":[],"outputs":[{"name":"","type":"uint256","internalType":"uint256"}],"stateMutability":"view"},{"type":"function","name":"dayStart","inputs":[],"outputs":[{"name":"","type":"uint256","internalType":"uint256"}],"stateMutability":"view"},{"type":"function","name":"depositETHForKRW","inputs":[{"name":"to","type":"address","internalType":"address"}],"outputs":[{"name":"krwOut","type":"uint256","internalType":"uint256"}],"stateMutability":"payable"},{"type":"function","name":"feeRecipient","inputs":[],"outputs":[{"name":"","type":"address","internalType":"address"}],"stateMutability":"view"},{"type":"function","name":"maxPriceAge","inputs":[],"outputs":[{"name":"","type":"uint256","internalType":"uint256"}],"stateMutability":"view"},{"type":"function","name":"mintFeeBps","inputs":[],"outputs":[{"name":"","type":"uint256","internalType":"uint256"}],"stateMutability":"view"},{"type":"function","name":"mintedToday","inputs":[],"outputs":[{"name":"","type":"uint256","internalType":"uint256"}],"stateMutability":"view"},{"type":"function","name":"owner","inputs":[],"outputs":[{"name":"","type":"address","internalType":"address"}],"stateMutability":"view"},{"type":"function","name":"pause","inputs":[],"outputs":[],"stateMutability":"nonpayable"},{"type":"function","name":"paused","inputs":[],"outputs":[{"name":"","type":"bool","internalType":"bool"}],"stateMutability":"view"},{"type":"function","name":"pendingOwner","inputs":[],"outputs":[{"name":"","type":"address","internalType":"address"}],"stateMutability":"view"},{"type":"function","name":"redeemFeeBps","inputs":[],"outputs":[{"name":"","type":"uint256","internalType":"uint256"}],"stateMutability":"view"},{"type":"function","name":"redeemKRWForETH","inputs":[{"name":"krwIn","type":"uint256","internalType":"uint256"},{"name":"to","type":"address","internalType":"address payable"}],"outputs":[{"name":"ethOut","type":"uint256","internalType":"uint256"}],"stateMutability":"nonpayable"},{"type":"function","name":"renounceOwnership","inputs":[],"outputs":[],"stateMutability":"nonpayable"},{"type":"function","name":"setAdapter","inputs":[{"name":"a","type":"address","internalType":"address"}],"outputs":[],"stateMutability":"nonpayable"},{"type":"function","name":"setDailyMintCap","inputs":[{"name":"c","type":"uint256","internalType":"uint256"}],"outputs":[],"stateMutability":"nonpayable"},{"type":"function","name":"setFees","inputs":[{"name":"_mintFeeBps","type":"uint256","internalType":"uint256"},{"name":"_redeemFeeBps","type":"uint256","internalType":"uint256"},{"name":"_feeRecipient","type":"address","internalType":"address"}],"outputs":[],"stateMutability":"nonpayable"},{"type":"function","name":"setLimits","inputs":[{"name":"_maxPriceAge","type":"uint256","internalType":"uint256"}],"outputs":[],"stateMutability":"nonpayable"},{"type":"function","name":"transferOwnership","inputs":[{"name":"newOwner","type":"address","internalType":"address"}],"outputs":[],"stateMutability":"nonpayable"},{"type":"function","name":"unpause","inputs":[],"outputs":[],"stateMutability":"nonpayable"},{"type":"function","name":"wkrw","inputs":[],"outputs":[{"name":"","type":"address","internalType":"contract IWKRW"}],"stateMutability":"view"},{"type":"event","name":"AdapterUpdated","inputs":[{"name":"adapter","type":"address","indexed":false,"internalType":"address"}],"anonymous":false},{"type":"event","name":"CapsUpdated","inputs":[{"name":"dailyMintCap","type":"uint256","indexed":false,"internalType":"uint256"}],"anonymous":false},{"type":"event","name":"Deposited","inputs":[{"name":"user","type":"address","indexed":true,"internalType":"address"},{"name":"ethIn","type":"uint256","indexed":false,"internalType":"uint256"},{"name":"krwOut","type":"uint256","indexed":false,"internalType":"uint256"},{"name":"feeKrw","type":"uint256","indexed":false,"internalType":"uint256"}],"anonymous":false},{"type":"event","name":"FeesUpdated","inputs":[{"name":"mintFeeBps","type":"uint256","indexed":false,"internalType":"uint256"},{"name":"redeemFeeBps","type":"uint256","indexed":false,"internalType":"uint256"},{"name":"feeRecipient","type":"address","indexed":false,"internalType":"address"}],"anonymous":false},{"type":"event","name":"LimitsUpdated","inputs":[{"name":"maxPriceAge","type":"uint256","indexed":false,"internalType":"uint256"}],"anonymous":false},{"type":"event","name":"OwnershipTransferStarted","inputs":[{"name":"previousOwner","type":"address","indexed":true,"internalType":"address"},{"name":"newOwner","type":"address","indexed":true,"internalType":"address"}],"anonymous":false},{"type":"event","name":"OwnershipTransferred","inputs":[{"name":"previousOwner","type":"address","indexed":true,"internalType":"address"},{"name":"newOwner","type":"address","indexed":true,"internalType":"address"}],"anonymous":false},{"type":"event","name":"Paused","inputs":[{"name":"account","type":"address","indexed":false,"internalType":"address"}],"anonymous":false},{"type":"event","name":"Redeemed","inputs":[{"name":"user","type":"address","indexed":true,"internalType":"address"},{"name":"krwIn","type":"uint256","indexed":false,"internalType":"uint256"},{"name":"ethOut","type":"uint256","indexed":false,"internalType":"uint256"},{"name":"feeEth","type":"uint256","indexed":false,"internalType":"uint256"}],"anonymous":false},{"type":"event","name":"Unpaused","inputs":[{"name":"account","type":"address","indexed":false,"internalType":"address"}],"anonymous":false},{"type":"error","name":"EnforcedPause","inputs":[]},{"type":"error","name":"ExpectedPause","inputs":[]},{"type":"error","name":"OwnableInvalidOwner","inputs":[{"name":"owner","type":"address","internalType":"address"}]},{"type":"error","name":"OwnableUnauthorizedAccount","inputs":[{"name":"account","type":"address","internalType":"address"}]},{"type":"error","name":"ReentrancyGuardReentrantCall","inputs":[]}],"bytecode":{"object":"0x60a0604052610708600355601460045560146005556a084595161401484a00000060075534801561002e575f5ffd5b5060405161270d38038061270d83398181016040528101906100509190610418565b33600161006f61006461026d60201b60201c565b61029660201b60201c565b5f01819055505f73ffffffffffffffffffffffffffffffffffffffff168173ffffffffffffffffffffffffffffffffffffffff16036100e5575f6040517f1e4fbdf70000000000000000000000000000000000000000000000000000000081526004016100dc9190610477565b60405180910390fd5b6100f48161029f60201b60201c565b505f73ffffffffffffffffffffffffffffffffffffffff168373ffffffffffffffffffffffffffffffffffffffff161415801561015d57505f73ffffffffffffffffffffffffffffffffffffffff168273ffffffffffffffffffffffffffffffffffffffff1614155b61019c576040517f08c379a0000000000000000000000000000000000000000000000000000000008152600401610193906104ea565b60405180910390fd5b8273ffffffffffffffffffffffffffffffffffffffff1660808173ffffffffffffffffffffffffffffffffffffffff16815250508160025f6101000a81548173ffffffffffffffffffffffffffffffffffffffff021916908373ffffffffffffffffffffffffffffffffffffffff1602179055508060065f6101000a81548173ffffffffffffffffffffffffffffffffffffffff021916908373ffffffffffffffffffffffffffffffffffffffff16021790555061025f426102d560201b60201c565b6008819055505050506105dc565b5f7f9b779b17422d0df92223018b32b4d1fa46e071723d6817e2486d003becc55f005f1b905090565b5f819050919050565b60015f6101000a81549073ffffffffffffffffffffffffffffffffffffffff02191690556102d2816102f760201b60201c565b50565b5f6201518080836102e6919061056b565b6102f0919061059b565b9050919050565b5f5f60019054906101000a900473ffffffffffffffffffffffffffffffffffffffff169050815f60016101000a81548173ffffffffffffffffffffffffffffffffffffffff021916908373ffffffffffffffffffffffffffffffffffffffff1602179055508173ffffffffffffffffffffffffffffffffffffffff168173ffffffffffffffffffffffffffffffffffffffff167f8be0079c531659141344cd1fd0a4f28419497f9722a3daafe3b4186f6b6457e060405160405180910390a35050565b5f5ffd5b5f73ffffffffffffffffffffffffffffffffffffffff82169050919050565b5f6103e7826103be565b9050919050565b6103f7816103dd565b8114610401575f5ffd5b50565b5f81519050610412816103ee565b92915050565b5f5f5f6060848603121561042f5761042e6103ba565b5b5f61043c86828701610404565b935050602061044d86828701610404565b925050604061045e86828701610404565b9150509250925092565b610471816103dd565b82525050565b5f60208201905061048a5f830184610468565b92915050565b5f82825260208201905092915050565b7f7a65726f206164647200000000000000000000000000000000000000000000005f82015250565b5f6104d4600983610490565b91506104df826104a0565b602082019050919050565b5f6020820190508181035f830152610501816104c8565b9050919050565b5f819050919050565b7f4e487b71000000000000000000000000000000000000000000000000000000005f52601260045260245ffd5b7f4e487b71000000000000000000000000000000000000000000000000000000005f52601160045260245ffd5b5f61057582610508565b915061058083610508565b9250826105905761058f610511565b5b828204905092915050565b5f6105a582610508565b91506105b083610508565b92508282026105be81610508565b915082820484148315176105d5576105d461053e565b5b5092915050565b6080516121046106095f395f818161050b015281816107bb015281816108a40152610ed101526121045ff3fe608060405260043610610143575f3560e01c80638456cb59116100b5578063b780595b1161006e578063b780595b146103ca578063b7c140dd146103f2578063c076b1a01461041c578063e30c397814610458578063e4d73e5914610482578063f2fde38b146104aa5761014a565b80638456cb59146102e65780638da5cb5b146102fc5780639638845d1461032657806397c8bcc114610350578063ab1da79c1461037a578063ae96ffe6146103a25761014a565b80633f4ba83a116101075780633f4ba83a14610220578063469048401461023657806355f039b5146102605780635c975abb14610290578063715018a6146102ba57806379ba5097146102d05761014a565b806303eadcfc1461014e57806309f6442c146101785780631584410a146101a25780632832bcb5146101cc57806339a77822146101f65761014a565b3661014a57005b5f5ffd5b348015610159575f5ffd5b506101626104d2565b60405161016f91906117f3565b60405180910390f35b348015610183575f5ffd5b5061018c6104f7565b6040516101999190611824565b60405180910390f35b3480156101ad575f5ffd5b506101b66104fd565b6040516101c39190611824565b60405180910390f35b3480156101d7575f5ffd5b506101e0610503565b6040516101ed9190611824565b60405180910390f35b348015610201575f5ffd5b5061020a610509565b604051610217919061185d565b60405180910390f35b34801561022b575f5ffd5b5061023461052d565b005b348015610241575f5ffd5b5061024a61053f565b6040516102579190611896565b60405180910390f35b61027a600480360381019061027591906118dd565b610564565b6040516102879190611824565b60405180910390f35b34801561029b575f5ffd5b506102a46109ca565b6040516102b19190611922565b60405180910390f35b3480156102c5575f5ffd5b506102ce6109de565b005b3480156102db575f5ffd5b506102e46109f1565b005b3480156102f1575f5ffd5b506102fa610a7f565b005b348015610307575f5ffd5b50610310610a91565b60405161031d9190611896565b60405180910390f35b348015610331575f5ffd5b5061033a610ab9565b6040516103479190611824565b60405180910390f35b34801561035b575f5ffd5b50610364610abf565b6040516103719190611824565b60405180910390f35b348015610385575f5ffd5b506103a0600480360381019061039b91906118dd565b610ac5565b005b3480156103ad575f5ffd5b506103c860048036038101906103c39190611965565b610bb5565b005b3480156103d5575f5ffd5b506103f060048036038101906103eb9190611965565b610c42565b005b3480156103fd575f5ffd5b50610406610c8b565b6040516104139190611824565b60405180910390f35b348015610427575f5ffd5b50610442600480360381019061043d91906119cb565b610c91565b60405161044f9190611824565b60405180910390f35b348015610463575f5ffd5b5061046c611193565b6040516104799190611896565b60405180910390f35b34801561048d575f5ffd5b506104a860048036038101906104a39190611a09565b6111bb565b005b3480156104b5575f5ffd5b506104d060048036038101906104cb91906118dd565b6112a2565b005b60025f9054906101000a900473ffffffffffffffffffffffffffffffffffffffff1681565b60055481565b60035481565b60075481565b7f000000000000000000000000000000000000000000000000000000000000000081565b61053561134e565b61053d6113d5565b565b60065f9054906101000a900473ffffffffffffffffffffffffffffffffffffffff1681565b5f61056d611435565b610575611457565b5f34116105b7576040517f08c379a00000000000000000000000000000000000000000000000000000000081526004016105ae90611ab3565b60405180910390fd5b5f5f60025f9054906101000a900473ffffffffffffffffffffffffffffffffffffffff1673ffffffffffffffffffffffffffffffffffffffff1663bb27e0ce6040518163ffffffff1660e01b81526004016040805180830381865afa158015610622573d5f5f3e3d5ffd5b505050506040513d601f19601f820116820180604052508101906106469190611ae5565b915091505f5f60025f9054906101000a900473ffffffffffffffffffffffffffffffffffffffff1673ffffffffffffffffffffffffffffffffffffffff1663e7c668c86040518163ffffffff1660e01b81526004016040805180830381865afa1580156106b5573d5f5f3e3d5ffd5b505050506040513d601f19601f820116820180604052508101906106d99190611ae5565b915091506106e683611498565b6106ef81611498565b5f670de0b6b3a764000085346107059190611b50565b61070f9190611bbe565b90505f670de0b6b3a764000084836107279190611b50565b6107319190611bbe565b90505f612710600454836107459190611b50565b61074f9190611bbe565b9050808261075d9190611bee565b97506107676114eb565b600754886009546107789190611c21565b11156107b9576040517f08c379a00000000000000000000000000000000000000000000000000000000081526004016107b090611c9e565b60405180910390fd5b7f000000000000000000000000000000000000000000000000000000000000000073ffffffffffffffffffffffffffffffffffffffff166340c10f198a8a6040518363ffffffff1660e01b8152600401610814929190611cbc565b5f604051808303815f87803b15801561082b575f5ffd5b505af115801561083d573d5f5f3e3d5ffd5b505050505f8111801561089d57505f73ffffffffffffffffffffffffffffffffffffffff1660065f9054906101000a900473ffffffffffffffffffffffffffffffffffffffff1673ffffffffffffffffffffffffffffffffffffffff1614155b1561094c577f000000000000000000000000000000000000000000000000000000000000000073ffffffffffffffffffffffffffffffffffffffff166340c10f1960065f9054906101000a900473ffffffffffffffffffffffffffffffffffffffff16836040518363ffffffff1660e01b815260040161091e929190611cbc565b5f604051808303815f87803b158015610935575f5ffd5b505af1158015610947573d5f5f3e3d5ffd5b505050505b8760095f82825461095d9190611c21565b925050819055503373ffffffffffffffffffffffffffffffffffffffff167f91ede45f04a37a7c170f5c1207df3b6bc748dc1e04ad5e917a241d0f52feada3348a846040516109ae93929190611ce3565b60405180910390a2505050505050506109c5611513565b919050565b5f5f5f9054906101000a900460ff16905090565b6109e661134e565b6109ef5f61152d565b565b5f6109fa61155d565b90508073ffffffffffffffffffffffffffffffffffffffff16610a1b611193565b73ffffffffffffffffffffffffffffffffffffffff1614610a7357806040517f118cdaa7000000000000000000000000000000000000000000000000000000008152600401610a6a9190611896565b60405180910390fd5b610a7c8161152d565b50565b610a8761134e565b610a8f611564565b565b5f5f60019054906101000a900473ffffffffffffffffffffffffffffffffffffffff16905090565b60085481565b60045481565b610acd61134e565b5f73ffffffffffffffffffffffffffffffffffffffff168173ffffffffffffffffffffffffffffffffffffffff1603610b3b576040517f08c379a0000000000000000000000000000000000000000000000000000000008152600401610b3290611d62565b60405180910390fd5b8060025f6101000a81548173ffffffffffffffffffffffffffffffffffffffff021916908373ffffffffffffffffffffffffffffffffffffffff1602179055507fe0f844393110e68237572819538a8c2bc270b13eac280c04079392bfb615b30b81604051610baa9190611896565b60405180910390a150565b610bbd61134e565b601e811015610c01576040517f08c379a0000000000000000000000000000000000000000000000000000000008152600401610bf890611dca565b60405180910390fd5b806003819055507f9da1d91fa7d0082eb55c343a33f4ea427cbaab2ff539d2c0bf4bc5d536e4bcc681604051610c379190611824565b60405180910390a150565b610c4a61134e565b806007819055507fb2075423cb39b05c5ebbb0dd951bc82c7603c991403cbeae01361ae27302b82981604051610c809190611824565b60405180910390a150565b60095481565b5f610c9a611435565b610ca2611457565b5f8311610ce4576040517f08c379a0000000000000000000000000000000000000000000000000000000008152600401610cdb90611e32565b60405180910390fd5b5f5f60025f9054906101000a900473ffffffffffffffffffffffffffffffffffffffff1673ffffffffffffffffffffffffffffffffffffffff1663bb27e0ce6040518163ffffffff1660e01b81526004016040805180830381865afa158015610d4f573d5f5f3e3d5ffd5b505050506040513d601f19601f82011682018060405250810190610d739190611ae5565b915091505f5f60025f9054906101000a900473ffffffffffffffffffffffffffffffffffffffff1673ffffffffffffffffffffffffffffffffffffffff1663e7c668c86040518163ffffffff1660e01b81526004016040805180830381865afa158015610de2573d5f5f3e3d5ffd5b505050506040513d601f19601f82011682018060405250810190610e069190611ae5565b91509150610e1383611498565b610e1c81611498565b5f82670de0b6b3a764000089610e329190611b50565b610e3c9190611bbe565b90505f85670de0b6b3a764000083610e549190611b50565b610e5e9190611bbe565b90505f61271060055483610e729190611b50565b610e7c9190611bbe565b90508082610e8a9190611bee565b975087471015610ecf576040517f08c379a0000000000000000000000000000000000000000000000000000000008152600401610ec690611e9a565b60405180910390fd5b7f000000000000000000000000000000000000000000000000000000000000000073ffffffffffffffffffffffffffffffffffffffff1663e1a7a3ae338c6040518363ffffffff1660e01b8152600401610f2a929190611cbc565b5f604051808303815f87803b158015610f41575f5ffd5b505af1158015610f53573d5f5f3e3d5ffd5b505050505f8973ffffffffffffffffffffffffffffffffffffffff1689604051610f7c90611ee5565b5f6040518083038185875af1925050503d805f8114610fb6576040519150601f19603f3d011682016040523d82523d5f602084013e610fbb565b606091505b5050905080610fff576040517f08c379a0000000000000000000000000000000000000000000000000000000008152600401610ff690611f43565b60405180910390fd5b5f8211801561105b57505f73ffffffffffffffffffffffffffffffffffffffff1660065f9054906101000a900473ffffffffffffffffffffffffffffffffffffffff1673ffffffffffffffffffffffffffffffffffffffff1614155b1561112b5760065f9054906101000a900473ffffffffffffffffffffffffffffffffffffffff1673ffffffffffffffffffffffffffffffffffffffff16826040516110a590611ee5565b5f6040518083038185875af1925050503d805f81146110df576040519150601f19603f3d011682016040523d82523d5f602084013e6110e4565b606091505b5050809150508061112a576040517f08c379a000000000000000000000000000000000000000000000000000000000815260040161112190611fab565b60405180910390fd5b5b3373ffffffffffffffffffffffffffffffffffffffff167f484c40561359f3e3b8be9101897f8680aa82fbe1df9fd9038e0dbc62840326468c8b8560405161117593929190611ce3565b60405180910390a2505050505050505061118d611513565b92915050565b5f60015f9054906101000a900473ffffffffffffffffffffffffffffffffffffffff16905090565b6111c361134e565b60c883111580156111d5575060c88211155b611214576040517f08c379a000000000000000000000000000000000000000000000000000000000815260040161120b90612013565b60405180910390fd5b82600481905550816005819055508060065f6101000a81548173ffffffffffffffffffffffffffffffffffffffff021916908373ffffffffffffffffffffffffffffffffffffffff1602179055507f660e7095066fd91b05cfad0851f3cefa62b4a62de319c3c13ef7db8982e7850183838360405161129593929190612031565b60405180910390a1505050565b6112aa61134e565b8060015f6101000a81548173ffffffffffffffffffffffffffffffffffffffff021916908373ffffffffffffffffffffffffffffffffffffffff1602179055508073ffffffffffffffffffffffffffffffffffffffff16611309610a91565b73ffffffffffffffffffffffffffffffffffffffff167f38d16b8cac22d99fc7c124b9cd0de2d3fa1faef420bfe791d8c362d765e2270060405160405180910390a350565b61135661155d565b73ffffffffffffffffffffffffffffffffffffffff16611374610a91565b73ffffffffffffffffffffffffffffffffffffffff16146113d35761139761155d565b6040517f118cdaa70000000000000000000000000000000000000000000000000000000081526004016113ca9190611896565b60405180910390fd5b565b6113dd6115c5565b5f5f5f6101000a81548160ff0219169083151502179055507f5db9ee0a495bf2e6ff9c91a7834c1ba4fdd244a5e8aa4e537bd38aeae4b073aa61141e61155d565b60405161142b9190611896565b60405180910390a1565b61143d611605565b600261144f61144a611646565b61166f565b5f0181905550565b61145f6109ca565b15611496576040517fd93c066500000000000000000000000000000000000000000000000000000000815260040160405180910390fd5b565b60035481426114a79190611bee565b11156114e8576040517f08c379a00000000000000000000000000000000000000000000000000000000081526004016114df906120b0565b60405180910390fd5b50565b5f6114f542611678565b905060085481111561151057806008819055505f6009819055505b50565b6001611525611520611646565b61166f565b5f0181905550565b60015f6101000a81549073ffffffffffffffffffffffffffffffffffffffff021916905561155a8161169a565b50565b5f33905090565b61156c611457565b60015f5f6101000a81548160ff0219169083151502179055507f62e78cea01bee320cd4e420270b5ea74000d11b0c9f74754ebdbfc544b05a2586115ae61155d565b6040516115bb9190611896565b60405180910390a1565b6115cd6109ca565b611603576040517f8dfc202b00000000000000000000000000000000000000000000000000000000815260040160405180910390fd5b565b61160d61175d565b15611644576040517f3ee5aeb500000000000000000000000000000000000000000000000000000000815260040160405180910390fd5b565b5f7f9b779b17422d0df92223018b32b4d1fa46e071723d6817e2486d003becc55f005f1b905090565b5f819050919050565b5f6201518080836116899190611bbe565b6116939190611b50565b9050919050565b5f5f60019054906101000a900473ffffffffffffffffffffffffffffffffffffffff169050815f60016101000a81548173ffffffffffffffffffffffffffffffffffffffff021916908373ffffffffffffffffffffffffffffffffffffffff1602179055508173ffffffffffffffffffffffffffffffffffffffff168173ffffffffffffffffffffffffffffffffffffffff167f8be0079c531659141344cd1fd0a4f28419497f9722a3daafe3b4186f6b6457e060405160405180910390a35050565b5f600261177061176b611646565b61166f565b5f015414905090565b5f73ffffffffffffffffffffffffffffffffffffffff82169050919050565b5f819050919050565b5f6117bb6117b66117b184611779565b611798565b611779565b9050919050565b5f6117cc826117a1565b9050919050565b5f6117dd826117c2565b9050919050565b6117ed816117d3565b82525050565b5f6020820190506118065f8301846117e4565b92915050565b5f819050919050565b61181e8161180c565b82525050565b5f6020820190506118375f830184611815565b92915050565b5f611847826117c2565b9050919050565b6118578161183d565b82525050565b5f6020820190506118705f83018461184e565b92915050565b5f61188082611779565b9050919050565b61189081611876565b82525050565b5f6020820190506118a95f830184611887565b92915050565b5f5ffd5b6118bc81611876565b81146118c6575f5ffd5b50565b5f813590506118d7816118b3565b92915050565b5f602082840312156118f2576118f16118af565b5b5f6118ff848285016118c9565b91505092915050565b5f8115159050919050565b61191c81611908565b82525050565b5f6020820190506119355f830184611913565b92915050565b6119448161180c565b811461194e575f5ffd5b50565b5f8135905061195f8161193b565b92915050565b5f6020828403121561197a576119796118af565b5b5f61198784828501611951565b91505092915050565b5f61199a82611779565b9050919050565b6119aa81611990565b81146119b4575f5ffd5b50565b5f813590506119c5816119a1565b92915050565b5f5f604083850312156119e1576119e06118af565b5b5f6119ee85828601611951565b92505060206119ff858286016119b7565b9150509250929050565b5f5f5f60608486031215611a2057611a1f6118af565b5b5f611a2d86828701611951565b9350506020611a3e86828701611951565b9250506040611a4f868287016118c9565b9150509250925092565b5f82825260208201905092915050565b7f6e6f2045544800000000000000000000000000000000000000000000000000005f82015250565b5f611a9d600683611a59565b9150611aa882611a69565b602082019050919050565b5f6020820190508181035f830152611aca81611a91565b9050919050565b5f81519050611adf8161193b565b92915050565b5f5f60408385031215611afb57611afa6118af565b5b5f611b0885828601611ad1565b9250506020611b1985828601611ad1565b9150509250929050565b7f4e487b71000000000000000000000000000000000000000000000000000000005f52601160045260245ffd5b5f611b5a8261180c565b9150611b658361180c565b9250828202611b738161180c565b91508282048414831517611b8a57611b89611b23565b5b5092915050565b7f4e487b71000000000000000000000000000000000000000000000000000000005f52601260045260245ffd5b5f611bc88261180c565b9150611bd38361180c565b925082611be357611be2611b91565b5b828204905092915050565b5f611bf88261180c565b9150611c038361180c565b9250828203905081811115611c1b57611c1a611b23565b5b92915050565b5f611c2b8261180c565b9150611c368361180c565b9250828201905080821115611c4e57611c4d611b23565b5b92915050565b7f6461696c792063617000000000000000000000000000000000000000000000005f82015250565b5f611c88600983611a59565b9150611c9382611c54565b602082019050919050565b5f6020820190508181035f830152611cb581611c7c565b9050919050565b5f604082019050611ccf5f830185611887565b611cdc6020830184611815565b9392505050565b5f606082019050611cf65f830186611815565b611d036020830185611815565b611d106040830184611815565b949350505050565b7f7a65726f000000000000000000000000000000000000000000000000000000005f82015250565b5f611d4c600483611a59565b9150611d5782611d18565b602082019050919050565b5f6020820190508181035f830152611d7981611d40565b9050919050565b7f62616400000000000000000000000000000000000000000000000000000000005f82015250565b5f611db4600383611a59565b9150611dbf82611d80565b602082019050919050565b5f6020820190508181035f830152611de181611da8565b9050919050565b7f6e6f204b525700000000000000000000000000000000000000000000000000005f82015250565b5f611e1c600683611a59565b9150611e2782611de8565b602082019050919050565b5f6020820190508181035f830152611e4981611e10565b9050919050565b7f696e73756666696369656e7420455448000000000000000000000000000000005f82015250565b5f611e84601083611a59565b9150611e8f82611e50565b602082019050919050565b5f6020820190508181035f830152611eb181611e78565b9050919050565b5f81905092915050565b50565b5f611ed05f83611eb8565b9150611edb82611ec2565b5f82019050919050565b5f611eef82611ec5565b9150819050919050565b7f65746820786665720000000000000000000000000000000000000000000000005f82015250565b5f611f2d600883611a59565b9150611f3882611ef9565b602082019050919050565b5f6020820190508181035f830152611f5a81611f21565b9050919050565b7f66656520786665720000000000000000000000000000000000000000000000005f82015250565b5f611f95600883611a59565b9150611fa082611f61565b602082019050919050565b5f6020820190508181035f830152611fc281611f89565b9050919050565b7f6665657320746f6f2068696768000000000000000000000000000000000000005f82015250565b5f611ffd600d83611a59565b915061200882611fc9565b602082019050919050565b5f6020820190508181035f83015261202a81611ff1565b9050919050565b5f6060820190506120445f830186611815565b6120516020830185611815565b61205e6040830184611887565b949350505050565b7f7374616c650000000000000000000000000000000000000000000000000000005f82015250565b5f61209a600583611a59565b91506120a582612066565b602082019050919050565b5f6020820190508181035f8301526120c78161208e565b905091905056fea2646970667358221220f47a8eaa21dd2d26176671a86baee99d983df2edf943a87097e27e5a67a0f23b64736f6c634300081e0033","linkReferences":{}},"methodIdentifiers":{"acceptOwnership()":"79ba5097","adapter()":"03eadcfc","dailyMintCap()":"2832bcb5","dayStart()":"9638845d","depositETHForKRW(address)":"55f039b5","feeRecipient()":"46904840","maxPriceAge()":"1584410a","mintFeeBps()":"97c8bcc1","mintedToday()":"b7c140dd","owner()":"8da5cb5b","pause()":"8456cb59","paused()":"5c975abb","pendingOwner()":"e30c3978","redeemFeeBps()":"09f6442c","redeemKRWForETH(uint256,address)":"c076b1a0","renounceOwnership()":"715018a6","setAdapter(address)":"ab1da79c","setDailyMintCap(uint256)":"b780595b","setFees(uint256,uint256,address)":"e4d73e59","setLimits(uint256)":"ae96ffe6","transferOwnership(address)":"f2fde38b","unpause()":"3f4ba83a","wkrw()":"39a77822"},"id":61}