{"abi":[{"type":"constructor","inputs":[{"name":"admin","type":"address","internalType":"address"}],"stateMutability":"nonpayable"},{"type":"function","name":"DEFAULT_ADMIN_ROLE","inputs":[],"outputs":[{"name":"","type":"bytes32","internalType":"bytes32"}],"stateMutability":"view"},{"type":"function","name":"DOMAIN_SEPARATOR","inputs":[],"outputs":[{"name":"","type":"bytes32","internalType":"bytes32"}],"stateMutability":"view"},{"type":"function","name":"MINTER_ROLE","inputs":[],"outputs":[{"name":"","type":"bytes32","internalType":"bytes32"}],"stateMutability":"view"},{"type":"function","name":"allowance","inputs":[{"name":"owner","type":"address","internalType":"address"},{"name":"spender","type":"address","internalType":"address"}],"outputs":[{"name":"","type":"uint256","internalType":"uint256"}],"stateMutability":"view"},{"type":"function","name":"approve","inputs":[{"name":"spender","type":"address","internalType":"address"},{"name":"value","type":"uint256","internalType":"uint256"}],"outputs":[{"name":"","type":"bool","internalType":"bool"}],"stateMutability":"nonpayable"},{"type":"function","name":"balanceOf","inputs":[{"name":"account","type":"address","internalType":"address"}],"outputs":[{"name":"","type":"uint256","internalType":"uint256"}],"stateMutability":"view"},{"type":"function","name":"burn","inputs":[{"name":"value","type":"uint256","internalType":"uint256"}],"outputs":[],"stateMutability":"nonpayable"},{"type":"function","name":"burnFrom","inputs":[{"name":"account","type":"address","internalType":"address"},{"name":"value","type":"uint256","internalType":"uint256"}],"outputs":[],"stateMutability":"nonpayable"},{"type":"function","name":"burnFromAsMinter","inputs":[{"name":"from","type":"address","internalType":"address"},{"name":"amount","type":"uint256","internalType":"uint256"}],"outputs":[],"stateMutability":"nonpayable"},{"type":"function","name":"decimals","inputs":[],"outputs":[{"name":"","type":"uint8","internalType":"uint8"}],"stateMutability":"view"},{"type":"function","name":"eip712Domain","inputs":[],"outputs":[{"name":"fields","type":"bytes1","internalType":"bytes1"},{"name":"name","type":"string","internalType":"string"},{"name":"version","type":"string","internalType":"string"},{"name":"chainId","type":"uint256","internalType":"uint256"},{"name":"verifyingContract","type":"address","internalType":"address"},{"name":"salt","type":"bytes32","internalType":"bytes32"},{"name":"extensions","type":"uint256[]","internalType":"uint256[]"}],"stateMutability":"view"},{"type":"function","name":"getRoleAdmin","inputs":[{"name":"role","type":"bytes32","internalType":"bytes32"}],"outputs":[{"name":"","type":"bytes32","internalType":"bytes32"}],"stateMutability":"view"},{"type":"function","name":"grantRole","inputs":[{"name":"role","type":"bytes32","internalType":"bytes32"},{"name":"account","type":"address","internalType":"address"}],"outputs":[],"stateMutability":"nonpayable"},{"type":"function","name":"hasRole","inputs":[{"name":"role","type":"bytes32","internalType":"bytes32"},{"name":"account","type":"address","internalType":"address"}],"outputs":[{"name":"","type":"bool","internalType":"bool"}],"stateMutability":"view"},{"type":"function","name":"mint","inputs":[{"name":"to","type":"address","internalType":"address"},{"name":"amount","type":"uint256","internalType":"uint256"}],"outputs":[],"stateMutability":"nonpayable"},{"type":"function","name":"name","inputs":[],"outputs":[{"name":"","type":"string","internalType":"string"}],"stateMutability":"view"},{"type":"function","name":"nonces","inputs":[{"name":"owner","type":"address","internalType":"address"}],"outputs":[{"name":"","type":"uint256","internalType":"uint256"}],"stateMutability":"view"},{"type":"function","name":"permit","inputs":[{"name":"owner","type":"address","internalType":"address"},{"name":"spender","type":"address","internalType":"address"},{"name":"value","type":"uint256","internalType":"uint256"},{"name":"deadline","type":"uint256","internalType":"uint256"},{"name":"v","type":"uint8","internalType":"uint8"},{"name":"r","type":"bytes32","internalType":"bytes32"},{"name":"s","type":"bytes32","internalType":"bytes32"}],"outputs":[],"stateMutability":"nonpayable"},{"type":"function","name":"renounceRole","inputs":[{"name":"role","type":"bytes32","internalType":"bytes32"},{"name":"callerConfirmation","type":"address","internalType":"address"}],"outputs":[],"stateMutability":"nonpayable"},{"type":"function","name":"revokeRole","inputs":[{"name":"role","type":"bytes32","internalType":"bytes32"},{"name":"account","type":"address","internalType":"address"}],"outputs":[],"stateMutability":"nonpayable"},{"type":"function","name":"supportsInterface","inputs":[{"name":"interfaceId","type":"bytes4","internalType":"bytes4"}],"outputs":[{"name":"","type":"bool","internalType":"bool"}],"stateMutability":"view"},{"type":"function","name":"symbol","inputs":[],"outputs":[{"name":"","type":"string","internalType":"string"}],"stateMutability":"view"},{"type":"function","name":"totalSupply","inputs":[],"outputs":[{"name":"","type":"uint256","internalType":"uint256"}],"stateMutability":"view"},{"type":"function","name":"transfer","inputs":[{"name":"to","type":"address","internalType":"address"},{"name":"value","type":"uint256","internalType":"uint256"}],"outputs":[{"name":"","type":"bool","internalType":"bool"}],"stateMutability":"nonpayable"},{"type":"function","name":"transferFrom","inputs":[{"name":"from","type":"address","internalType":"address"},{"name":"to","type":"address","internalType":"address"},{"name":"value","type":"uint256","internalType":"uint256"}],"outputs":[{"name":"","type":"bool","internalType":"bool"}],"stateMutability":"nonpayable"},{"type":"event","name":"Approval","inputs":[{"name":"owner","type":"address","indexed":true,"internalType":"address"},{"name":"spender","type":"address","indexed":true,"internalType":"address"},{"name":"value","type":"uint256","indexed":false,"internalType":"uint256"}],"anonymous":false},{"type":"event","name":"EIP712DomainChanged","inputs":[],"anonymous":false},{"type":"event","name":"RoleAdminChanged","inputs":[{"name":"role","type":"bytes32","indexed":true,"internalType":"bytes32"},{"name":"previousAdminRole","type":"bytes32","indexed":true,"internalType":"bytes32"},{"name":"newAdminRole","type":"bytes32","indexed":true,"internalType":"bytes32"}],"anonymous":false},{"type":"event","name":"RoleGranted","inputs":[{"name":"role","type":"bytes32","indexed":true,"internalType":"bytes32"},{"name":"account","type":"address","indexed":true,"internalType":"address"},{"name":"sender","type":"address","indexed":true,"internalType":"address"}],"anonymous":false},{"type":"event","name":"RoleRevoked","inputs":[{"name":"role","type":"bytes32","indexed":true,"internalType":"bytes32"},{"name":"account","type":"address","indexed":true,"internalType":"address"},{"name":"sender","type":"address","indexed":true,"internalType":"address"}],"anonymous":false},{"type":"event","name":"Transfer","inputs":[{"name":"from","type":"address","indexed":true,"internalType":"address"},{"name":"to","type":"address","indexed":true,"internalType":"address"},{"name":"value","type":"uint256","indexed":false,"internalType":"uint256"}],"anonymous":false},{"type":"error","name":"AccessControlBadConfirmation","inputs":[]},{"type":"error","name":"AccessControlUnauthorizedAccount","inputs":[{"name":"account","type":"address","internalType":"address"},{"name":"neededRole","type":"bytes32","internalType":"bytes32"}]},{"type":"error","name":"ECDSAInvalidSignature","inputs":[]},{"type":"error","name":"ECDSAInvalidSignatureLength","inputs":[{"name":"length","type":"uint256","internalType":"uint256"}]},{"type":"error","name":"ECDSAInvalidSignatureS","inputs":[{"name":"s","type":"bytes32","internalType":"bytes32"}]},{"type":"error","name":"ERC20InsufficientAllowance","inputs":[{"name":"spender","type":"address","internalType":"address"},{"name":"allowance","type":"uint256","internalType":"uint256"},{"name":"needed","type":"uint256","internalType":"uint256"}]},{"type":"error","name":"ERC20InsufficientBalance","inputs":[{"name":"sender","type":"address","internalType":"address"},{"name":"balance","type":"uint256","internalType":"uint256"},{"name":"needed","type":"uint256","internalType":"uint256"}]},{"type":"error","name":"ERC20InvalidApprover","inputs":[{"name":"approver","type":"address","internalType":"address"}]},{"type":"error","name":"ERC20InvalidReceiver","inputs":[{"name":"receiver","type":"address","internalType":"address"}]},{"type":"error","name":"ERC20InvalidSender","inputs":[{"name":"sender","type":"address","internalType":"address"}]},{"type":"error","name":"ERC20InvalidSpender","inputs":[{"name":"spender","type":"address","internalType":"address"}]},{"type":"error","name":"ERC2612ExpiredSignature","inputs":[{"name":"deadline","type":"uint256","internalType":"uint256"}]},{"type":"error","name":"ERC2612InvalidSigner","inputs":[{"name":"signer","type":"address","internalType":"address"},{"name":"owner","type":"address","internalType":"address"}]},{"type":"error","name":"InvalidAccountNonce","inputs":[{"name":"account","type":"address","internalType":"address"},{"name":"currentNonce","type":"uint256","internalType":"uint256"}]},{"type":"error","name":"InvalidShortString","inputs":[]},{"type":"error","name":"StringTooLong","inputs":[{"name":"str","type":"string","internalType":"string"}]}],"bytecode":{"object":"0x610160604052348015610010575f5ffd5b50604051612eda380380612eda833981810160405281019061003291906104c5565b6040518060400160405280600481526020017f774b525700000000000000000000000000000000000000000000000000000000815250806040518060400160405280600181526020017f31000000000000000000000000000000000000000000000000000000000000008152506040518060400160405280600b81526020017f57726170706564204b52570000000000000000000000000000000000000000008152506040518060400160405280600481526020017f774b525700000000000000000000000000000000000000000000000000000000815250816003908161011a919061072d565b50806004908161012a919061072d565b5050506101416005836101f160201b90919060201c565b610120818152505061015d6006826101f160201b90919060201c565b6101408181525050818051906020012060e08181525050808051906020012061010081815250504660a0818152505061019a61023e60201b60201c565b608081815250503073ffffffffffffffffffffffffffffffffffffffff1660c08173ffffffffffffffffffffffffffffffffffffffff16815250505050506101ea5f5f1b8261029860201b60201c565b505061099c565b5f6020835110156102125761020b8361038e60201b60201c565b9050610238565b82610222836103f360201b60201c565b5f019081610230919061072d565b5060ff5f1b90505b92915050565b5f7f8b73c3c69bb8fe3d512ecc4cf759cc79239f7b179b0ffacaa9a75d522b39400f60e05161010051463060405160200161027d959493929190610832565b60405160208183030381529060405280519060200120905090565b5f6102a983836103fc60201b60201c565b61038457600160085f8581526020019081526020015f205f015f8473ffffffffffffffffffffffffffffffffffffffff1673ffffffffffffffffffffffffffffffffffffffff1681526020019081526020015f205f6101000a81548160ff02191690831515021790555061032161046060201b60201c565b73ffffffffffffffffffffffffffffffffffffffff168273ffffffffffffffffffffffffffffffffffffffff16847f2f8788117e7eff1d82e926ec794901d17c78024a50270940304540a733656f0d60405160405180910390a460019050610388565b5f90505b92915050565b5f5f829050601f815111156103da57826040517f305a27a90000000000000000000000000000000000000000000000000000000081526004016103d191906108e9565b60405180910390fd5b8051816103e690610936565b5f1c175f1b915050919050565b5f819050919050565b5f60085f8481526020019081526020015f205f015f8373ffffffffffffffffffffffffffffffffffffffff1673ffffffffffffffffffffffffffffffffffffffff1681526020019081526020015f205f9054906101000a900460ff16905092915050565b5f33905090565b5f5ffd5b5f73ffffffffffffffffffffffffffffffffffffffff82169050919050565b5f6104948261046b565b9050919050565b6104a48161048a565b81146104ae575f5ffd5b50565b5f815190506104bf8161049b565b92915050565b5f602082840312156104da576104d9610467565b5b5f6104e7848285016104b1565b91505092915050565b5f81519050919050565b7f4e487b71000000000000000000000000000000000000000000000000000000005f52604160045260245ffd5b7f4e487b71000000000000000000000000000000000000000000000000000000005f52602260045260245ffd5b5f600282049050600182168061056b57607f821691505b60208210810361057e5761057d610527565b5b50919050565b5f819050815f5260205f209050919050565b5f6020601f8301049050919050565b5f82821b905092915050565b5f600883026105e07fffffffffffffffffffffffffffffffffffffffffffffffffffffffffffffffff826105a5565b6105ea86836105a5565b95508019841693508086168417925050509392505050565b5f819050919050565b5f819050919050565b5f61062e61062961062484610602565b61060b565b610602565b9050919050565b5f819050919050565b61064783610614565b61065b61065382610635565b8484546105b1565b825550505050565b5f5f905090565b610672610663565b61067d81848461063e565b505050565b5b818110156106a0576106955f8261066a565b600181019050610683565b5050565b601f8211156106e5576106b681610584565b6106bf84610596565b810160208510156106ce578190505b6106e26106da85610596565b830182610682565b50505b505050565b5f82821c905092915050565b5f6107055f19846008026106ea565b1980831691505092915050565b5f61071d83836106f6565b9150826002028217905092915050565b610736826104f0565b67ffffffffffffffff81111561074f5761074e6104fa565b5b6107598254610554565b6107648282856106a4565b5f60209050601f831160018114610795575f8415610783578287015190505b61078d8582610712565b8655506107f4565b601f1984166107a386610584565b5f5b828110156107ca578489015182556001820191506020850194506020810190506107a5565b868310156107e757848901516107e3601f8916826106f6565b8355505b6001600288020188555050505b505050505050565b5f819050919050565b61080e816107fc565b82525050565b61081d81610602565b82525050565b61082c8161048a565b82525050565b5f60a0820190506108455f830188610805565b6108526020830187610805565b61085f6040830186610805565b61086c6060830185610814565b6108796080830184610823565b9695505050505050565b5f82825260208201905092915050565b8281835e5f83830152505050565b5f601f19601f8301169050919050565b5f6108bb826104f0565b6108c58185610883565b93506108d5818560208601610893565b6108de816108a1565b840191505092915050565b5f6020820190508181035f83015261090181846108b1565b905092915050565b5f81519050919050565b5f819050602082019050919050565b5f61092d82516107fc565b80915050919050565b5f61094082610909565b8261094a84610913565b905061095581610922565b92506020821015610995576109907fffffffffffffffffffffffffffffffffffffffffffffffffffffffffffffffff836020036008026105a5565b831692505b5050919050565b60805160a05160c05160e0516101005161012051610140516124ed6109ed5f395f61122201525f6111e701525f61176c01525f61174b01525f610efd01525f610f5301525f610f7c01526124ed5ff3fe608060405234801561000f575f5ffd5b5060043610610171575f3560e01c806370a08231116100dc578063a217fddf11610095578063d53913931161006f578063d539139314610475578063d547741f14610493578063dd62ed3e146104af578063e1a7a3ae146104df57610171565b8063a217fddf1461040b578063a9059cbb14610429578063d505accf1461045957610171565b806370a082311461031d57806379cc67901461034d5780637ecebe001461036957806384b0196e1461039957806391d14854146103bd57806395d89b41146103ed57610171565b80632f2ff15d1161012e5780632f2ff15d14610271578063313ce5671461028d5780633644e515146102ab57806336568abe146102c957806340c10f19146102e557806342966c681461030157610171565b806301ffc9a71461017557806306fdde03146101a5578063095ea7b3146101c357806318160ddd146101f357806323b872dd14610211578063248a9ca314610241575b5f5ffd5b61018f600480360381019061018a9190611c0b565b6104fb565b60405161019c9190611c50565b60405180910390f35b6101ad610574565b6040516101ba9190611cd9565b60405180910390f35b6101dd60048036038101906101d89190611d86565b610604565b6040516101ea9190611c50565b60405180910390f35b6101fb610626565b6040516102089190611dd3565b60405180910390f35b61022b60048036038101906102269190611dec565b61062f565b6040516102389190611c50565b60405180910390f35b61025b60048036038101906102569190611e6f565b61065d565b6040516102689190611ea9565b60405180910390f35b61028b60048036038101906102869190611ec2565b61067a565b005b61029561069c565b6040516102a29190611f1b565b60405180910390f35b6102b36106a4565b6040516102c09190611ea9565b60405180910390f35b6102e360048036038101906102de9190611ec2565b6106b2565b005b6102ff60048036038101906102fa9190611d86565b61072d565b005b61031b60048036038101906103169190611f34565b610766565b005b61033760048036038101906103329190611f5f565b61077a565b6040516103449190611dd3565b60405180910390f35b61036760048036038101906103629190611d86565b6107bf565b005b610383600480360381019061037e9190611f5f565b6107df565b6040516103909190611dd3565b60405180910390f35b6103a16107f0565b6040516103b4979695949392919061208a565b60405180910390f35b6103d760048036038101906103d29190611ec2565b610895565b6040516103e49190611c50565b60405180910390f35b6103f56108f9565b6040516104029190611cd9565b60405180910390f35b610413610989565b6040516104209190611ea9565b60405180910390f35b610443600480360381019061043e9190611d86565b61098f565b6040516104509190611c50565b60405180910390f35b610473600480360381019061046e9190612136565b6109b1565b005b61047d610af6565b60405161048a9190611ea9565b60405180910390f35b6104ad60048036038101906104a89190611ec2565b610b1a565b005b6104c960048036038101906104c491906121d3565b610b3c565b6040516104d69190611dd3565b60405180910390f35b6104f960048036038101906104f49190611d86565b610bbe565b005b5f7f7965db0b000000000000000000000000000000000000000000000000000000007bffffffffffffffffffffffffffffffffffffffffffffffffffffffff1916827bffffffffffffffffffffffffffffffffffffffffffffffffffffffff1916148061056d575061056c82610bf7565b5b9050919050565b6060600380546105839061223e565b80601f01602080910402602001604051908101604052809291908181526020018280546105af9061223e565b80156105fa5780601f106105d1576101008083540402835291602001916105fa565b820191905f5260205f20905b8154815290600101906020018083116105dd57829003601f168201915b5050505050905090565b5f5f61060e610c60565b905061061b818585610c67565b600191505092915050565b5f600254905090565b5f5f610639610c60565b9050610646858285610c79565b610651858585610d0c565b60019150509392505050565b5f60085f8381526020019081526020015f20600101549050919050565b6106838261065d565b61068c81610dfc565b6106968383610e10565b50505050565b5f6012905090565b5f6106ad610efa565b905090565b6106ba610c60565b73ffffffffffffffffffffffffffffffffffffffff168173ffffffffffffffffffffffffffffffffffffffff161461071e576040517f6697b23200000000000000000000000000000000000000000000000000000000815260040160405180910390fd5b6107288282610fb0565b505050565b7f9f2df0fed2c77648de5860a4cc508cd0818c85b8b8a1ab4ceeef8d981c8956a661075781610dfc565b610761838361109a565b505050565b610777610771610c60565b82611119565b50565b5f5f5f8373ffffffffffffffffffffffffffffffffffffffff1673ffffffffffffffffffffffffffffffffffffffff1681526020019081526020015f20549050919050565b6107d1826107cb610c60565b83610c79565b6107db8282611119565b5050565b5f6107e982611198565b9050919050565b5f6060805f5f5f60606108016111de565b610809611219565b46305f5f1b5f67ffffffffffffffff8111156108285761082761226e565b5b6040519080825280602002602001820160405280156108565781602001602082028036833780820191505090505b507f0f00000000000000000000000000000000000000000000000000000000000000959493929190965096509650965096509650965090919293949596565b5f60085f8481526020019081526020015f205f015f8373ffffffffffffffffffffffffffffffffffffffff1673ffffffffffffffffffffffffffffffffffffffff1681526020019081526020015f205f9054906101000a900460ff16905092915050565b6060600480546109089061223e565b80601f01602080910402602001604051908101604052809291908181526020018280546109349061223e565b801561097f5780601f106109565761010080835404028352916020019161097f565b820191905f5260205f20905b81548152906001019060200180831161096257829003601f168201915b5050505050905090565b5f5f1b81565b5f5f610999610c60565b90506109a6818585610d0c565b600191505092915050565b834211156109f657836040517f627913020000000000000000000000000000000000000000000000000000000081526004016109ed9190611dd3565b60405180910390fd5b5f7f6e71edae12b1b97f4d1f60370fef10105fa2faae0126114a169c64845d6126c9888888610a248c611254565b89604051602001610a3a9695949392919061229b565b6040516020818303038152906040528051906020012090505f610a5c826112a7565b90505f610a6b828787876112c0565b90508973ffffffffffffffffffffffffffffffffffffffff168173ffffffffffffffffffffffffffffffffffffffff1614610adf57808a6040517f4b800e46000000000000000000000000000000000000000000000000000000008152600401610ad69291906122fa565b60405180910390fd5b610aea8a8a8a610c67565b50505050505050505050565b7f9f2df0fed2c77648de5860a4cc508cd0818c85b8b8a1ab4ceeef8d981c8956a681565b610b238261065d565b610b2c81610dfc565b610b368383610fb0565b50505050565b5f60015f8473ffffffffffffffffffffffffffffffffffffffff1673ffffffffffffffffffffffffffffffffffffffff1681526020019081526020015f205f8373ffffffffffffffffffffffffffffffffffffffff1673ffffffffffffffffffffffffffffffffffffffff1681526020019081526020015f2054905092915050565b7f9f2df0fed2c77648de5860a4cc508cd0818c85b8b8a1ab4ceeef8d981c8956a6610be881610dfc565b610bf28383611119565b505050565b5f7f01ffc9a7000000000000000000000000000000000000000000000000000000007bffffffffffffffffffffffffffffffffffffffffffffffffffffffff1916827bffffffffffffffffffffffffffffffffffffffffffffffffffffffff1916149050919050565b5f33905090565b610c7483838360016112ee565b505050565b5f610c848484610b3c565b90507fffffffffffffffffffffffffffffffffffffffffffffffffffffffffffffffff811015610d065781811015610cf7578281836040517ffb8f41b2000000000000000000000000000000000000000000000000000000008152600401610cee93929190612321565b60405180910390fd5b610d0584848484035f6112ee565b5b50505050565b5f73ffffffffffffffffffffffffffffffffffffffff168373ffffffffffffffffffffffffffffffffffffffff1603610d7c575f6040517f96c6fd1e000000000000000000000000000000000000000000000000000000008152600401610d739190612356565b60405180910390fd5b5f73ffffffffffffffffffffffffffffffffffffffff168273ffffffffffffffffffffffffffffffffffffffff1603610dec575f6040517fec442f05000000000000000000000000000000000000000000000000000000008152600401610de39190612356565b60405180910390fd5b610df78383836114bd565b505050565b610e0d81610e08610c60565b6116d6565b50565b5f610e1b8383610895565b610ef057600160085f8581526020019081526020015f205f015f8473ffffffffffffffffffffffffffffffffffffffff1673ffffffffffffffffffffffffffffffffffffffff1681526020019081526020015f205f6101000a81548160ff021916908315150217905550610e8d610c60565b73ffffffffffffffffffffffffffffffffffffffff168273ffffffffffffffffffffffffffffffffffffffff16847f2f8788117e7eff1d82e926ec794901d17c78024a50270940304540a733656f0d60405160405180910390a460019050610ef4565b5f90505b92915050565b5f7f000000000000000000000000000000000000000000000000000000000000000073ffffffffffffffffffffffffffffffffffffffff163073ffffffffffffffffffffffffffffffffffffffff16148015610f7557507f000000000000000000000000000000000000000000000000000000000000000046145b15610fa2577f00000000000000000000000000000000000000000000000000000000000000009050610fad565b610faa611727565b90505b90565b5f610fbb8383610895565b15611090575f60085f8581526020019081526020015f205f015f8473ffffffffffffffffffffffffffffffffffffffff1673ffffffffffffffffffffffffffffffffffffffff1681526020019081526020015f205f6101000a81548160ff02191690831515021790555061102d610c60565b73ffffffffffffffffffffffffffffffffffffffff168273ffffffffffffffffffffffffffffffffffffffff16847ff6391f5c32d9c69d2a47ea670b442974b53935d1edc7fd64eb21e047a839171b60405160405180910390a460019050611094565b5f90505b92915050565b5f73ffffffffffffffffffffffffffffffffffffffff168273ffffffffffffffffffffffffffffffffffffffff160361110a575f6040517fec442f050000000000000000000000000000000000000000000000000000000081526004016111019190612356565b60405180910390fd5b6111155f83836114bd565b5050565b5f73ffffffffffffffffffffffffffffffffffffffff168273ffffffffffffffffffffffffffffffffffffffff1603611189575f6040517f96c6fd1e0000000000000000000000000000000000000000000000000000000081526004016111809190612356565b60405180910390fd5b611194825f836114bd565b5050565b5f60075f8373ffffffffffffffffffffffffffffffffffffffff1673ffffffffffffffffffffffffffffffffffffffff1681526020019081526020015f20549050919050565b606061121460057f00000000000000000000000000000000000000000000000000000000000000006117bc90919063ffffffff16565b905090565b606061124f60067f00000000000000000000000000000000000000000000000000000000000000006117bc90919063ffffffff16565b905090565b5f60075f8373ffffffffffffffffffffffffffffffffffffffff1673ffffffffffffffffffffffffffffffffffffffff1681526020019081526020015f205f815480929190600101919050559050919050565b5f6112b96112b3610efa565b83611869565b9050919050565b5f5f5f5f6112d0888888886118a9565b9250925092506112e08282611990565b829350505050949350505050565b5f73ffffffffffffffffffffffffffffffffffffffff168473ffffffffffffffffffffffffffffffffffffffff160361135e575f6040517fe602df050000000000000000000000000000000000000000000000000000000081526004016113559190612356565b60405180910390fd5b5f73ffffffffffffffffffffffffffffffffffffffff168373ffffffffffffffffffffffffffffffffffffffff16036113ce575f6040517f94280d620000000000000000000000000000000000000000000000000000000081526004016113c59190612356565b60405180910390fd5b8160015f8673ffffffffffffffffffffffffffffffffffffffff1673ffffffffffffffffffffffffffffffffffffffff1681526020019081526020015f205f8573ffffffffffffffffffffffffffffffffffffffff1673ffffffffffffffffffffffffffffffffffffffff1681526020019081526020015f208190555080156114b7578273ffffffffffffffffffffffffffffffffffffffff168473ffffffffffffffffffffffffffffffffffffffff167f8c5be1e5ebec7d5bd14f71427d1e84f3dd0314c0f7b2291e5b200ac8c7c3b925846040516114ae9190611dd3565b60405180910390a35b50505050565b5f73ffffffffffffffffffffffffffffffffffffffff168373ffffffffffffffffffffffffffffffffffffffff160361150d578060025f828254611501919061239c565b925050819055506115db565b5f5f5f8573ffffffffffffffffffffffffffffffffffffffff1673ffffffffffffffffffffffffffffffffffffffff1681526020019081526020015f2054905081811015611596578381836040517fe450d38c00000000000000000000000000000000000000000000000000000000815260040161158d93929190612321565b60405180910390fd5b8181035f5f8673ffffffffffffffffffffffffffffffffffffffff1673ffffffffffffffffffffffffffffffffffffffff1681526020019081526020015f2081905550505b5f73ffffffffffffffffffffffffffffffffffffffff168273ffffffffffffffffffffffffffffffffffffffff1603611622578060025f828254039250508190555061166c565b805f5f8473ffffffffffffffffffffffffffffffffffffffff1673ffffffffffffffffffffffffffffffffffffffff1681526020019081526020015f205f82825401925050819055505b8173ffffffffffffffffffffffffffffffffffffffff168373ffffffffffffffffffffffffffffffffffffffff167fddf252ad1be2c89b69c2b068fc378daa952ba7f163c4a11628f55a4df523b3ef836040516116c99190611dd3565b60405180910390a3505050565b6116e08282610895565b6117235780826040517fe2517d3f00000000000000000000000000000000000000000000000000000000815260040161171a9291906123cf565b60405180910390fd5b5050565b5f7f8b73c3c69bb8fe3d512ecc4cf759cc79239f7b179b0ffacaa9a75d522b39400f7f00000000000000000000000000000000000000000000000000000000000000007f000000000000000000000000000000000000000000000000000000000000000046306040516020016117a19594939291906123f6565b60405160208183030381529060405280519060200120905090565b606060ff5f1b83146117d8576117d183611af2565b9050611863565b8180546117e49061223e565b80601f01602080910402602001604051908101604052809291908181526020018280546118109061223e565b801561185b5780601f106118325761010080835404028352916020019161185b565b820191905f5260205f20905b81548152906001019060200180831161183e57829003601f168201915b505050505090505b92915050565b5f6040517f190100000000000000000000000000000000000000000000000000000000000081528360028201528260228201526042812091505092915050565b5f5f5f7f7fffffffffffffffffffffffffffffff5d576e7357a4501ddfe92f46681b20a0845f1c11156118e5575f600385925092509250611986565b5f6001888888886040515f81526020016040526040516119089493929190612447565b6020604051602081039080840390855afa158015611928573d5f5f3e3d5ffd5b5050506020604051035190505f73ffffffffffffffffffffffffffffffffffffffff168173ffffffffffffffffffffffffffffffffffffffff1603611979575f60015f5f1b93509350935050611986565b805f5f5f1b935093509350505b9450945094915050565b5f60038111156119a3576119a261248a565b5b8260038111156119b6576119b561248a565b5b0315611aee57600160038111156119d0576119cf61248a565b5b8260038111156119e3576119e261248a565b5b03611a1a576040517ff645eedf00000000000000000000000000000000000000000000000000000000815260040160405180910390fd5b60026003811115611a2e57611a2d61248a565b5b826003811115611a4157611a4061248a565b5b03611a8557805f1c6040517ffce698f7000000000000000000000000000000000000000000000000000000008152600401611a7c9190611dd3565b60405180910390fd5b600380811115611a9857611a9761248a565b5b826003811115611aab57611aaa61248a565b5b03611aed57806040517fd78bce0c000000000000000000000000000000000000000000000000000000008152600401611ae49190611ea9565b60405180910390fd5b5b5050565b60605f611afe83611b64565b90505f602067ffffffffffffffff811115611b1c57611b1b61226e565b5b6040519080825280601f01601f191660200182016040528015611b4e5781602001600182028036833780820191505090505b5090508181528360208201528092505050919050565b5f5f60ff835f1c169050601f811115611ba9576040517fb3512b0c00000000000000000000000000000000000000000000000000000000815260040160405180910390fd5b80915050919050565b5f5ffd5b5f7fffffffff0000000000000000000000000000000000000000000000000000000082169050919050565b611bea81611bb6565b8114611bf4575f5ffd5b50565b5f81359050611c0581611be1565b92915050565b5f60208284031215611c2057611c1f611bb2565b5b5f611c2d84828501611bf7565b91505092915050565b5f8115159050919050565b611c4a81611c36565b82525050565b5f602082019050611c635f830184611c41565b92915050565b5f81519050919050565b5f82825260208201905092915050565b8281835e5f83830152505050565b5f601f19601f8301169050919050565b5f611cab82611c69565b611cb58185611c73565b9350611cc5818560208601611c83565b611cce81611c91565b840191505092915050565b5f6020820190508181035f830152611cf18184611ca1565b905092915050565b5f73ffffffffffffffffffffffffffffffffffffffff82169050919050565b5f611d2282611cf9565b9050919050565b611d3281611d18565b8114611d3c575f5ffd5b50565b5f81359050611d4d81611d29565b92915050565b5f819050919050565b611d6581611d53565b8114611d6f575f5ffd5b50565b5f81359050611d8081611d5c565b92915050565b5f5f60408385031215611d9c57611d9b611bb2565b5b5f611da985828601611d3f565b9250506020611dba85828601611d72565b9150509250929050565b611dcd81611d53565b82525050565b5f602082019050611de65f830184611dc4565b92915050565b5f5f5f60608486031215611e0357611e02611bb2565b5b5f611e1086828701611d3f565b9350506020611e2186828701611d3f565b9250506040611e3286828701611d72565b9150509250925092565b5f819050919050565b611e4e81611e3c565b8114611e58575f5ffd5b50565b5f81359050611e6981611e45565b92915050565b5f60208284031215611e8457611e83611bb2565b5b5f611e9184828501611e5b565b91505092915050565b611ea381611e3c565b82525050565b5f602082019050611ebc5f830184611e9a565b92915050565b5f5f60408385031215611ed857611ed7611bb2565b5b5f611ee585828601611e5b565b9250506020611ef685828601611d3f565b9150509250929050565b5f60ff82169050919050565b611f1581611f00565b82525050565b5f602082019050611f2e5f830184611f0c565b92915050565b5f60208284031215611f4957611f48611bb2565b5b5f611f5684828501611d72565b91505092915050565b5f60208284031215611f7457611f73611bb2565b5b5f611f8184828501611d3f565b91505092915050565b5f7fff0000000000000000000000000000000000000000000000000000000000000082169050919050565b611fbe81611f8a565b82525050565b611fcd81611d18565b82525050565b5f81519050919050565b5f82825260208201905092915050565b5f819050602082019050919050565b61200581611d53565b82525050565b5f6120168383611ffc565b60208301905092915050565b5f602082019050919050565b5f61203882611fd3565b6120428185611fdd565b935061204d83611fed565b805f5b8381101561207d578151612064888261200b565b975061206f83612022565b925050600181019050612050565b5085935050505092915050565b5f60e08201905061209d5f83018a611fb5565b81810360208301526120af8189611ca1565b905081810360408301526120c38188611ca1565b90506120d26060830187611dc4565b6120df6080830186611fc4565b6120ec60a0830185611e9a565b81810360c08301526120fe818461202e565b905098975050505050505050565b61211581611f00565b811461211f575f5ffd5b50565b5f813590506121308161210c565b92915050565b5f5f5f5f5f5f5f60e0888a03121561215157612150611bb2565b5b5f61215e8a828b01611d3f565b975050602061216f8a828b01611d3f565b96505060406121808a828b01611d72565b95505060606121918a828b01611d72565b94505060806121a28a828b01612122565b93505060a06121b38a828b01611e5b565b92505060c06121c48a828b01611e5b565b91505092959891949750929550565b5f5f604083850312156121e9576121e8611bb2565b5b5f6121f685828601611d3f565b925050602061220785828601611d3f565b9150509250929050565b7f4e487b71000000000000000000000000000000000000000000000000000000005f52602260045260245ffd5b5f600282049050600182168061225557607f821691505b60208210810361226857612267612211565b5b50919050565b7f4e487b71000000000000000000000000000000000000000000000000000000005f52604160045260245ffd5b5f60c0820190506122ae5f830189611e9a565b6122bb6020830188611fc4565b6122c86040830187611fc4565b6122d56060830186611dc4565b6122e26080830185611dc4565b6122ef60a0830184611dc4565b979650505050505050565b5f60408201905061230d5f830185611fc4565b61231a6020830184611fc4565b9392505050565b5f6060820190506123345f830186611fc4565b6123416020830185611dc4565b61234e6040830184611dc4565b949350505050565b5f6020820190506123695f830184611fc4565b92915050565b7f4e487b71000000000000000000000000000000000000000000000000000000005f52601160045260245ffd5b5f6123a682611d53565b91506123b183611d53565b92508282019050808211156123c9576123c861236f565b5b92915050565b5f6040820190506123e25f830185611fc4565b6123ef6020830184611e9a565b9392505050565b5f60a0820190506124095f830188611e9a565b6124166020830187611e9a565b6124236040830186611e9a565b6124306060830185611dc4565b61243d6080830184611fc4565b9695505050505050565b5f60808201905061245a5f830187611e9a565b6124676020830186611f0c565b6124746040830185611e9a565b6124816060830184611e9a565b95945050505050565b7f4e487b71000000000000000000000000000000000000000000000000000000005f52602160045260245ffdfea264697066735822122057071c676e0dd9928adc3958c16df7261a1faba13140603dbdfe5e5f14bf7a1f64736f6c634300081e0033","linkReferences":{}},"methodIdentifiers":{"DEFAULT_ADMIN_ROLE()":"a217fddf","DOMAIN_SEPARATOR()":"3644e515","MINTER_ROLE()":"d5391393","allowance(address,address)":"dd62ed3e","approve(address,uint256)":"095ea7b3","balanceOf(address)":"70a08231","burn(uint256)":"42966c68","burnFrom(address,uint256)":"79cc6790","burnFromAsMinter(address,uint256)":"e1a7a3ae","decimals()":"313ce567","eip712Domain()":"84b0196e","getRoleAdmin(bytes32)":"248a9ca3","grantRole(bytes32,address)":"2f2ff15d","hasRole(bytes32,address)":"91d14854","mint(address,uint256)":"40c10f19","name()":"06fdde03","nonces(address)":"7ecebe00","permit(address,address,uint256,uint256,uint8,bytes32,bytes32)":"d505accf","renounceRole(bytes32,address)":"36568abe","revokeRole(bytes32,address)":"d547741f","supportsInterface(bytes4)":"01ffc9a7","symbol()":"95d89b41","totalSupply()":"18160ddd","transfer(address,uint256)":"a9059cbb","transferFrom(address,address,uint256)":"23b872dd"},"id":62}